{
  "contractName": "Tree",
  "abi": [
    {
      "constant": false,
      "inputs": [
        {
          "name": "distrib",
          "type": "address"
        }
      ],
      "name": "banDistributor",
      "outputs": [],
      "payable": false,
      "stateMutability": "nonpayable",
      "type": "function"
    },
    {
      "constant": false,
      "inputs": [
        {
          "name": "id",
          "type": "bytes32"
        }
      ],
      "name": "getFile",
      "outputs": [
        {
          "name": "",
          "type": "string"
        }
      ],
      "payable": false,
      "stateMutability": "nonpayable",
      "type": "function"
    },
    {
      "constant": true,
      "inputs": [],
      "name": "owner",
      "outputs": [
        {
          "name": "",
          "type": "address"
        }
      ],
      "payable": false,
      "stateMutability": "view",
      "type": "function"
    },
    {
      "constant": false,
      "inputs": [
        {
          "name": "distrib",
          "type": "address"
        }
      ],
      "name": "getDisId",
      "outputs": [
        {
          "name": "",
          "type": "string"
        }
      ],
      "payable": false,
      "stateMutability": "nonpayable",
      "type": "function"
    },
    {
      "constant": false,
      "inputs": [
        {
          "name": "id",
          "type": "bytes32"
        }
      ],
      "name": "topUp",
      "outputs": [],
      "payable": true,
      "stateMutability": "payable",
      "type": "function"
    },
    {
      "constant": false,
      "inputs": [
        {
          "name": "id",
          "type": "bytes32"
        },
        {
          "name": "invitee",
          "type": "address"
        }
      ],
      "name": "addDistributor",
      "outputs": [
        {
          "name": "",
          "type": "bool"
        }
      ],
      "payable": false,
      "stateMutability": "nonpayable",
      "type": "function"
    },
    {
      "constant": false,
      "inputs": [
        {
          "name": "fileId",
          "type": "bytes32"
        },
        {
          "name": "disId",
          "type": "string"
        }
      ],
      "name": "makePayment",
      "outputs": [
        {
          "name": "",
          "type": "bool"
        }
      ],
      "payable": false,
      "stateMutability": "nonpayable",
      "type": "function"
    },
    {
      "constant": false,
      "inputs": [
        {
          "name": "id",
          "type": "bytes32"
        },
        {
          "name": "link",
          "type": "string"
        },
        {
          "name": "original_distributor",
          "type": "address"
        }
      ],
      "name": "addFile",
      "outputs": [],
      "payable": true,
      "stateMutability": "payable",
      "type": "function"
    },
    {
      "inputs": [
        {
          "name": "rate",
          "type": "uint256"
        },
        {
          "name": "lowFundCap",
          "type": "uint256"
        }
      ],
      "payable": false,
      "stateMutability": "nonpayable",
      "type": "constructor"
    },
    {
      "anonymous": false,
      "inputs": [
        {
          "indexed": false,
          "name": "id",
          "type": "bytes32"
        }
      ],
      "name": "lowFunds",
      "type": "event"
    },
    {
      "anonymous": false,
      "inputs": [
        {
          "indexed": false,
          "name": "id",
          "type": "bytes32"
        }
      ],
      "name": "noFunds",
      "type": "event"
    },
    {
      "anonymous": false,
      "inputs": [
        {
          "indexed": false,
          "name": "disId",
          "type": "string"
        }
      ],
      "name": "checkForPayment",
      "type": "event"
    }
  ],
  "bytecode": "0x606060405234156200001057600080fd5b604051604080620058fc8339810160405280805190602001909190805190602001909190505033600460006101000a81548173ffffffffffffffffffffffffffffffffffffffff021916908373ffffffffffffffffffffffffffffffffffffffff1602179055508160068190555080600581905550620000a3620000eb64010000000002620022dd176401000000009004565b600760006101000a81548173ffffffffffffffffffffffffffffffffffffffff021916908373ffffffffffffffffffffffffffffffffffffffff160217905550505062000124565b6000620000f762000113565b604051809103906000f08015156200010e57600080fd5b905090565b604051611a438062003eb983390190565b613d8580620001346000396000f30060606040526004361062000097576000357c0100000000000000000000000000000000000000000000000000000000900463ffffffff1680631c69f627146200009c578063473aa2a514620000d85780638da5cb5b146200017e578063c4f425af14620001d6578063cfa54f39146200028e578063d29a684f14620002ac578063d307ca76146200030d578063ebc6c3b81462000363575b600080fd5b3415620000a857600080fd5b620000d6600480803573ffffffffffffffffffffffffffffffffffffffff16906020019091905050620003e3565b005b3415620000e457600080fd5b620001006004808035600019169060200190919050506200049d565b6040518080602001828103825283818151815260200191508051906020019080838360005b838110156200014257808201518184015260208101905062000125565b50505050905090810190601f168015620001705780820380516001836020036101000a031916815260200191505b509250505060405180910390f35b34156200018a57600080fd5b62000194620005d0565b604051808273ffffffffffffffffffffffffffffffffffffffff1673ffffffffffffffffffffffffffffffffffffffff16815260200191505060405180910390f35b3415620001e257600080fd5b62000210600480803573ffffffffffffffffffffffffffffffffffffffff16906020019091905050620005f6565b6040518080602001828103825283818151815260200191508051906020019080838360005b838110156200025257808201518184015260208101905062000235565b50505050905090810190601f168015620002805780820380516001836020036101000a031916815260200191505b509250505060405180910390f35b620002aa600480803560001916906020019091905050620006e6565b005b3415620002b857600080fd5b620002f360048080356000191690602001909190803573ffffffffffffffffffffffffffffffffffffffff1690602001909190505062000791565b604051808215151515815260200191505060405180910390f35b34156200031957600080fd5b62000349600480803560001916906020019091908035906020019082018035906020019190919290505062000fdb565b604051808215151515815260200191505060405180910390f35b620003e160048080356000191690602001909190803590602001908201803590602001908080601f0160208091040260200160405190810160405280939291908181526020018383808284378201915050505050509190803573ffffffffffffffffffffffffffffffffffffffff16906020019091905050620013ec565b005b3373ffffffffffffffffffffffffffffffffffffffff16600460009054906101000a900473ffffffffffffffffffffffffffffffffffffffff1673ffffffffffffffffffffffffffffffffffffffff161415156200044057600080fd5b60018060008373ffffffffffffffffffffffffffffffffffffffff1673ffffffffffffffffffffffffffffffffffffffff16815260200190815260200160002060010160146101000a81548160ff02191690831515021790555050565b620004a762001e6c565b60055460008084600019166000191681526020019081526020016000206004015410156200050f577f7797ed11e4c15b10f8a1d5001f1af39c5cb103e797c60233f519fdd2a453e9648260405180826000191660001916815260200191505060405180910390a15b60008083600019166000191681526020019081526020016000206000018054600181600116156101000203166002900480601f016020809104026020016040519081016040528092919081815260200182805460018160011615610100020316600290048015620005c45780601f106200059857610100808354040283529160200191620005c4565b820191906000526020600020905b815481529060010190602001808311620005a657829003601f168201915b50505050509050919050565b600460009054906101000a900473ffffffffffffffffffffffffffffffffffffffff1681565b6200060062001e6c565b600160008373ffffffffffffffffffffffffffffffffffffffff1673ffffffffffffffffffffffffffffffffffffffff1681526020019081526020016000206002018054600181600116156101000203166002900480601f016020809104026020016040519081016040528092919081815260200182805460018160011615610100020316600290048015620006da5780601f10620006ae57610100808354040283529160200191620006da565b820191906000526020600020905b815481529060010190602001808311620006bc57829003601f168201915b50505050509050919050565b60003373ffffffffffffffffffffffffffffffffffffffff16600460009054906101000a900473ffffffffffffffffffffffffffffffffffffffff1673ffffffffffffffffffffffffffffffffffffffff161415156200074557600080fd5b6006543402905080600080846000191660001916815260200190815260200160002060040154016000808460001916600019168152602001908152602001600020600401819055505050565b6000806200079e62001e6c565b60001515600160008673ffffffffffffffffffffffffffffffffffffffff1673ffffffffffffffffffffffffffffffffffffffff16815260200190815260200160002060010160149054906101000a900460ff161515141515156200080257600080fd5b60011515600160008673ffffffffffffffffffffffffffffffffffffffff1673ffffffffffffffffffffffffffffffffffffffff16815260200190815260200160002060010160159054906101000a900460ff161515141515156200086657600080fd5b6001151560026000876000191660001916815260200190815260200160002060009054906101000a900460ff16151514151562000f8f57338260000160006101000a81548173ffffffffffffffffffffffffffffffffffffffff021916908373ffffffffffffffffffffffffffffffffffffffff160217905550838260010160006101000a81548173ffffffffffffffffffffffffffffffffffffffff021916908373ffffffffffffffffffffffffffffffffffffffff16021790555060008260010160146101000a81548160ff02191690831515021790555060018260010160156101000a81548160ff02191690831515021790555060018060003373ffffffffffffffffffffffffffffffffffffffff1673ffffffffffffffffffffffffffffffffffffffff168152602001908152602001600020600301546001900401600102600160003373ffffffffffffffffffffffffffffffffffffffff1673ffffffffffffffffffffffffffffffffffffffff1681526020019081526020016000206003018160001916905550600060010282600301816000191690555062000a51600160003373ffffffffffffffffffffffffffffffffffffffff1673ffffffffffffffffffffffffffffffffffffffff1681526020019081526020016000206003015462001a6d565b905062000b5a62000a628262001b75565b62000b4b600160003373ffffffffffffffffffffffffffffffffffffffff1673ffffffffffffffffffffffffffffffffffffffff1681526020019081526020016000206002018054600181600116156101000203166002900480601f01602080910402602001604051908101604052809291908181526020018280546001816001161561010002031660029004801562000b405780601f1062000b145761010080835404028352916020019162000b40565b820191906000526020600020905b81548152906001019060200180831162000b2257829003601f168201915b505050505062001b75565b62001ba590919063ffffffff16565b82600201908051906020019062000b7392919062001e80565b5081600160008673ffffffffffffffffffffffffffffffffffffffff1673ffffffffffffffffffffffffffffffffffffffff1681526020019081526020016000206000820160009054906101000a900473ffffffffffffffffffffffffffffffffffffffff168160000160006101000a81548173ffffffffffffffffffffffffffffffffffffffff021916908373ffffffffffffffffffffffffffffffffffffffff1602179055506001820160009054906101000a900473ffffffffffffffffffffffffffffffffffffffff168160010160006101000a81548173ffffffffffffffffffffffffffffffffffffffff021916908373ffffffffffffffffffffffffffffffffffffffff1602179055506001820160149054906101000a900460ff168160010160146101000a81548160ff0219169083151502179055506001820160159054906101000a900460ff168160010160156101000a81548160ff0219169083151502179055506002820181600201908054600181600116156101000203166002900462000d0592919062001f07565b50600382015481600301906000191690559050506000808660001916600019168152602001908152602001600020600201805480600101828162000d4a919062001f95565b916000526020600020906004020160008490919091506000820160009054906101000a900473ffffffffffffffffffffffffffffffffffffffff168160000160006101000a81548173ffffffffffffffffffffffffffffffffffffffff021916908373ffffffffffffffffffffffffffffffffffffffff1602179055506001820160009054906101000a900473ffffffffffffffffffffffffffffffffffffffff168160010160006101000a81548173ffffffffffffffffffffffffffffffffffffffff021916908373ffffffffffffffffffffffffffffffffffffffff1602179055506001820160149054906101000a900460ff168160010160146101000a81548160ff0219169083151502179055506001820160159054906101000a900460ff168160010160156101000a81548160ff0219169083151502179055506002820181600201908054600181600116156101000203166002900462000eb192919062001f07565b50600382015481600301906000191690555050507f4b718d41810e7bf6233c4593d14036e89516c13627b24bc289f86a3a3af6640a82600201604051808060200182810382528381815460018160011615610100020316600290048152602001915080546001816001161561010002031660029004801562000f775780601f1062000f4b5761010080835404028352916020019162000f77565b820191906000526020600020905b81548152906001019060200180831162000f5957829003601f168201915b50509250505060405180910390a16001925062000fd3565b7f84f95dfa53a1b371755bf08eede5030bc0bc84d2fc25d95a1aece83ad1cbaeb28560405180826000191660001916815260200191505060405180910390a1600092505b505092915050565b6000806001151560036000876000191660001916815260200190815260200160002060003373ffffffffffffffffffffffffffffffffffffffff1673ffffffffffffffffffffffffffffffffffffffff16815260200190815260200160002060009054906101000a900460ff161515141515156200105857600080fd5b620011d86200119562001149600160003373ffffffffffffffffffffffffffffffffffffffff1673ffffffffffffffffffffffffffffffffffffffff1681526020019081526020016000206002018054600181600116156101000203166002900480601f0160208091040260200160405190810160405280929190818152602001828054600181600116156101000203166002900480156200113e5780601f1062001112576101008083540402835291602001916200113e565b820191906000526020600020905b8154815290600101906020018083116200112057829003601f168201915b505050505062001b75565b6200118687878080601f01602080910402602001604051908101604052809392919081815260200183838082843782019150505050505062001b75565b62001c2c90919063ffffffff16565b620011d286868080601f01602080910402602001604051908101604052809392919081815260200183838082843782019150505050505062001b75565b62001c82565b90508015620013e4576001600080876000191660001916815260200190815260200160002060040154101515620013ae57600160008087600019166000191681526020019081526020016000206004015403600080876000191660001916815260200190815260200160002060040181905550600760009054906101000a900473ffffffffffffffffffffffffffffffffffffffff1673ffffffffffffffffffffffffffffffffffffffff166340c10f193360016000604051602001526040518363ffffffff167c0100000000000000000000000000000000000000000000000000000000028152600401808373ffffffffffffffffffffffffffffffffffffffff1673ffffffffffffffffffffffffffffffffffffffff16815260200182815260200192505050602060405180830381600087803b15156200131a57600080fd5b6102c65a03f115156200132c57600080fd5b5050506040518051905050600160036000876000191660001916815260200190815260200160002060003373ffffffffffffffffffffffffffffffffffffffff1673ffffffffffffffffffffffffffffffffffffffff16815260200190815260200160002060006101000a81548160ff021916908315150217905550620013e3565b600160026000876000191660001916815260200190815260200160002060006101000a81548160ff0219169083151502179055505b5b509392505050565b6000803373ffffffffffffffffffffffffffffffffffffffff16600460009054906101000a900473ffffffffffffffffffffffffffffffffffffffff1673ffffffffffffffffffffffffffffffffffffffff161415156200144c57600080fd5b84600080826000191660001916815260200190815260200160002060030160009054906101000a900460ff161515156200148557600080fd5b848360000190805190602001906200149f92919062001e80565b50338360010160006101000a81548173ffffffffffffffffffffffffffffffffffffffff021916908373ffffffffffffffffffffffffffffffffffffffff16021790555060018360030160006101000a81548160ff02191690831515021790555060065434028360040181905550338260000160006101000a81548173ffffffffffffffffffffffffffffffffffffffff021916908373ffffffffffffffffffffffffffffffffffffffff160217905550838260010160006101000a81548173ffffffffffffffffffffffffffffffffffffffff021916908373ffffffffffffffffffffffffffffffffffffffff16021790555060008260010160146101000a81548160ff02191690831515021790555060018260010160156101000a81548160ff0219169083151502179055506040805190810160405280600181526020017f30000000000000000000000000000000000000000000000000000000000000008152508260020190805190602001906200161c92919062001e80565b50600060010282600301816000191690555081600160008673ffffffffffffffffffffffffffffffffffffffff1673ffffffffffffffffffffffffffffffffffffffff1681526020019081526020016000206000820160009054906101000a900473ffffffffffffffffffffffffffffffffffffffff168160000160006101000a81548173ffffffffffffffffffffffffffffffffffffffff021916908373ffffffffffffffffffffffffffffffffffffffff1602179055506001820160009054906101000a900473ffffffffffffffffffffffffffffffffffffffff168160010160006101000a81548173ffffffffffffffffffffffffffffffffffffffff021916908373ffffffffffffffffffffffffffffffffffffffff1602179055506001820160149054906101000a900460ff168160010160146101000a81548160ff0219169083151502179055506001820160159054906101000a900460ff168160010160156101000a81548160ff02191690831515021790555060028201816002019080546001816001161561010002031660029004620017bf92919062001f07565b5060038201548160030190600019169055905050826002018054806001018281620017eb919062001f95565b916000526020600020906004020160008490919091506000820160009054906101000a900473ffffffffffffffffffffffffffffffffffffffff168160000160006101000a81548173ffffffffffffffffffffffffffffffffffffffff021916908373ffffffffffffffffffffffffffffffffffffffff1602179055506001820160009054906101000a900473ffffffffffffffffffffffffffffffffffffffff168160010160006101000a81548173ffffffffffffffffffffffffffffffffffffffff021916908373ffffffffffffffffffffffffffffffffffffffff1602179055506001820160149054906101000a900460ff168160010160146101000a81548160ff0219169083151502179055506001820160159054906101000a900460ff168160010160156101000a81548160ff021916908315150217905550600282018160020190805460018160011615610100020316600290046200195292919062001f07565b506003820154816003019060001916905550505082600080886000191660001916815260200190815260200160002060008201816000019080546001816001161561010002031660029004620019aa92919062001f07565b506001820160009054906101000a900473ffffffffffffffffffffffffffffffffffffffff168160010160006101000a81548173ffffffffffffffffffffffffffffffffffffffff021916908373ffffffffffffffffffffffffffffffffffffffff160217905550600282018160020190805462001a2a92919062001fca565b506003820160009054906101000a900460ff168160030160006101000a81548160ff02191690831515021790555060048201548160040155905050505050505050565b62001a7762001e6c565b62001a8162002189565b600080602060405180591062001a945750595b9080825280601f01601f19166020018201604052509250600091505b602082101562001b6a578160080260020a856001900402600102905060007f010000000000000000000000000000000000000000000000000000000000000002817effffffffffffffffffffffffffffffffffffffffffffffffffffffffffffff191614151562001b5c5780838381518110151562001b2b57fe5b9060200101907effffffffffffffffffffffffffffffffffffffffffffffffffffffffffffff1916908160001a9053505b818060010192505062001ab0565b829350505050919050565b62001b7f6200219d565b600060208301905060408051908101604052808451815260200182815250915050919050565b62001baf62001e6c565b62001bb962001e6c565b6000836000015185600001510160405180591062001bd45750595b9080825280601f01601f1916602001820160405250915060208201905062001c06818660200151876000015162001c9a565b62001c21856000015182018560200151866000015162001c9a565b819250505092915050565b62001c366200219d565b600062001c56846000015185602001518560000151866020015162001ce7565b905083602001518103846000018181510391508181525050808460200181815250508391505092915050565b60008062001c91848462001dac565b14905092915050565b60005b60208210151562001cc4578251845260208401935060208301925060208203915062001c9d565b6001826020036101000a0390508019835116818551168181178652505050505050565b6000806000806000888711151562001d9a5760208711151562001d4d5760018760200360080260020a031980875116888b038a018a96505b81838851161462001d415760018701965080600188031062001d1f578b8b0196505b50505083945062001da0565b8686209150879350600092505b8689038311151562001d9957868420905080600019168260001916141562001d855783945062001da0565b600184019350828060010193505062001d5a565b5b88880194505b50505050949350505050565b60008060008060008060008060008a6000015197508a600001518a60000151101562001dda57896000015197505b8a60200151965089602001519550600094505b8785101562001e50578651935085519250828414151562001e3857600185896020030160080260020a0319915081831682851603905060008114151562001e375780985062001e5e565b5b60208701965060208601955060208501945062001ded565b89600001518b600001510398505b505050505050505092915050565b602060405190810160405280600081525090565b828054600181600116156101000203166002900490600052602060002090601f016020900481019282601f1062001ec357805160ff191683800117855562001ef4565b8280016001018555821562001ef4579182015b8281111562001ef357825182559160200191906001019062001ed6565b5b50905062001f039190620021b7565b5090565b828054600181600116156101000203166002900490600052602060002090601f016020900481019282601f1062001f42578054855562001f82565b8280016001018555821562001f8257600052602060002091601f016020900482015b8281111562001f8157825482559160010191906001019062001f64565b5b50905062001f919190620021b7565b5090565b81548183558181151162001fc55760040281600402836000526020600020918201910162001fc49190620021df565b5b505050565b828054828255906000526020600020906004028101928215620021765760005260206000209160040282015b82811115620021755782826000820160009054906101000a900473ffffffffffffffffffffffffffffffffffffffff168160000160006101000a81548173ffffffffffffffffffffffffffffffffffffffff021916908373ffffffffffffffffffffffffffffffffffffffff1602179055506001820160009054906101000a900473ffffffffffffffffffffffffffffffffffffffff168160010160006101000a81548173ffffffffffffffffffffffffffffffffffffffff021916908373ffffffffffffffffffffffffffffffffffffffff1602179055506001820160149054906101000a900460ff168160010160146101000a81548160ff0219169083151502179055506001820160159054906101000a900460ff168160010160156101000a81548160ff021916908315150217905550600282018160020190805460018160011615610100020316600290046200215292919062001f07565b506003820154816003019060001916905550509160040191906004019062001ff6565b5b509050620021859190620021df565b5090565b602060405190810160405280600081525090565b604080519081016040528060008152602001600081525090565b620021dc91905b80821115620021d8576000816000905550600101620021be565b5090565b90565b6200228e91905b808211156200228a57600080820160006101000a81549073ffffffffffffffffffffffffffffffffffffffff02191690556001820160006101000a81549073ffffffffffffffffffffffffffffffffffffffff02191690556001820160146101000a81549060ff02191690556001820160156101000a81549060ff021916905560028201600062002278919062002291565b600382016000905550600401620021e6565b5090565b90565b50805460018160011615610100020316600290046000825580601f10620022b95750620022da565b601f016020900490600052602060002090810190620022d99190620021b7565b5b50565b6000620022e962002305565b604051809103906000f08015156200230057600080fd5b905090565b604051611a43806200231783390190560060606040526000600360146101000a81548160ff0219169083151502179055506040805190810160405280600a81526020017f545249414c20434f494e00000000000000000000000000000000000000000000815250600490805190602001906200006c9291906200011e565b506040805190810160405280600381526020017f545249000000000000000000000000000000000000000000000000000000000081525060059080519060200190620000ba9291906200011e565b506012600660006101000a81548160ff021916908360ff16021790555033600360006101000a81548173ffffffffffffffffffffffffffffffffffffffff021916908373ffffffffffffffffffffffffffffffffffffffff160217905550620001cd565b828054600181600116156101000203166002900490600052602060002090601f016020900481019282601f106200016157805160ff191683800117855562000192565b8280016001018555821562000192579182015b828111156200019157825182559160200191906001019062000174565b5b509050620001a19190620001a5565b5090565b620001ca91905b80821115620001c6576000816000905550600101620001ac565b5090565b90565b61186680620001dd6000396000f3006060604052600436106100e6576000357c0100000000000000000000000000000000000000000000000000000000900463ffffffff16806305d2035b146100eb57806306fdde0314610118578063095ea7b3146101a657806318160ddd1461020057806323b872dd14610229578063313ce567146102a257806340c10f19146102d1578063661884631461032b57806370a08231146103855780637d64bcb4146103d25780638da5cb5b146103ff57806395d89b4114610454578063a9059cbb146104e2578063d73dd6231461053c578063dd62ed3e14610596578063f2fde38b14610602575b600080fd5b34156100f657600080fd5b6100fe61063b565b604051808215151515815260200191505060405180910390f35b341561012357600080fd5b61012b61064e565b6040518080602001828103825283818151815260200191508051906020019080838360005b8381101561016b578082015181840152602081019050610150565b50505050905090810190601f1680156101985780820380516001836020036101000a031916815260200191505b509250505060405180910390f35b34156101b157600080fd5b6101e6600480803573ffffffffffffffffffffffffffffffffffffffff169060200190919080359060200190919050506106ec565b604051808215151515815260200191505060405180910390f35b341561020b57600080fd5b6102136107de565b6040518082815260200191505060405180910390f35b341561023457600080fd5b610288600480803573ffffffffffffffffffffffffffffffffffffffff1690602001909190803573ffffffffffffffffffffffffffffffffffffffff169060200190919080359060200190919050506107e4565b604051808215151515815260200191505060405180910390f35b34156102ad57600080fd5b6102b5610ba3565b604051808260ff1660ff16815260200191505060405180910390f35b34156102dc57600080fd5b610311600480803573ffffffffffffffffffffffffffffffffffffffff16906020019091908035906020019091905050610bb6565b604051808215151515815260200191505060405180910390f35b341561033657600080fd5b61036b600480803573ffffffffffffffffffffffffffffffffffffffff16906020019091908035906020019091905050610d9e565b604051808215151515815260200191505060405180910390f35b341561039057600080fd5b6103bc600480803573ffffffffffffffffffffffffffffffffffffffff1690602001909190505061102f565b6040518082815260200191505060405180910390f35b34156103dd57600080fd5b6103e5611078565b604051808215151515815260200191505060405180910390f35b341561040a57600080fd5b610412611140565b604051808273ffffffffffffffffffffffffffffffffffffffff1673ffffffffffffffffffffffffffffffffffffffff16815260200191505060405180910390f35b341561045f57600080fd5b610467611166565b6040518080602001828103825283818151815260200191508051906020019080838360005b838110156104a757808201518184015260208101905061048c565b50505050905090810190601f1680156104d45780820380516001836020036101000a031916815260200191505b509250505060405180910390f35b34156104ed57600080fd5b610522600480803573ffffffffffffffffffffffffffffffffffffffff16906020019091908035906020019091905050611204565b604051808215151515815260200191505060405180910390f35b341561054757600080fd5b61057c600480803573ffffffffffffffffffffffffffffffffffffffff16906020019091908035906020019091905050611428565b604051808215151515815260200191505060405180910390f35b34156105a157600080fd5b6105ec600480803573ffffffffffffffffffffffffffffffffffffffff1690602001909190803573ffffffffffffffffffffffffffffffffffffffff16906020019091905050611624565b6040518082815260200191505060405180910390f35b341561060d57600080fd5b610639600480803573ffffffffffffffffffffffffffffffffffffffff169060200190919050506116ab565b005b600360149054906101000a900460ff1681565b60048054600181600116156101000203166002900480601f0160208091040260200160405190810160405280929190818152602001828054600181600116156101000203166002900480156106e45780601f106106b9576101008083540402835291602001916106e4565b820191906000526020600020905b8154815290600101906020018083116106c757829003601f168201915b505050505081565b600081600260003373ffffffffffffffffffffffffffffffffffffffff1673ffffffffffffffffffffffffffffffffffffffff16815260200190815260200160002060008573ffffffffffffffffffffffffffffffffffffffff1673ffffffffffffffffffffffffffffffffffffffff168152602001908152602001600020819055508273ffffffffffffffffffffffffffffffffffffffff163373ffffffffffffffffffffffffffffffffffffffff167f8c5be1e5ebec7d5bd14f71427d1e84f3dd0314c0f7b2291e5b200ac8c7c3b925846040518082815260200191505060405180910390a36001905092915050565b60005481565b60008073ffffffffffffffffffffffffffffffffffffffff168373ffffffffffffffffffffffffffffffffffffffff161415151561082157600080fd5b600160008573ffffffffffffffffffffffffffffffffffffffff1673ffffffffffffffffffffffffffffffffffffffff16815260200190815260200160002054821115151561086f57600080fd5b600260008573ffffffffffffffffffffffffffffffffffffffff1673ffffffffffffffffffffffffffffffffffffffff16815260200190815260200160002060003373ffffffffffffffffffffffffffffffffffffffff1673ffffffffffffffffffffffffffffffffffffffff1681526020019081526020016000205482111515156108fa57600080fd5b61094c82600160008773ffffffffffffffffffffffffffffffffffffffff1673ffffffffffffffffffffffffffffffffffffffff1681526020019081526020016000205461180390919063ffffffff16565b600160008673ffffffffffffffffffffffffffffffffffffffff1673ffffffffffffffffffffffffffffffffffffffff168152602001908152602001600020819055506109e182600160008673ffffffffffffffffffffffffffffffffffffffff1673ffffffffffffffffffffffffffffffffffffffff1681526020019081526020016000205461181c90919063ffffffff16565b600160008573ffffffffffffffffffffffffffffffffffffffff1673ffffffffffffffffffffffffffffffffffffffff16815260200190815260200160002081905550610ab382600260008773ffffffffffffffffffffffffffffffffffffffff1673ffffffffffffffffffffffffffffffffffffffff16815260200190815260200160002060003373ffffffffffffffffffffffffffffffffffffffff1673ffffffffffffffffffffffffffffffffffffffff1681526020019081526020016000205461180390919063ffffffff16565b600260008673ffffffffffffffffffffffffffffffffffffffff1673ffffffffffffffffffffffffffffffffffffffff16815260200190815260200160002060003373ffffffffffffffffffffffffffffffffffffffff1673ffffffffffffffffffffffffffffffffffffffff168152602001908152602001600020819055508273ffffffffffffffffffffffffffffffffffffffff168473ffffffffffffffffffffffffffffffffffffffff167fddf252ad1be2c89b69c2b068fc378daa952ba7f163c4a11628f55a4df523b3ef846040518082815260200191505060405180910390a3600190509392505050565b600660009054906101000a900460ff1681565b6000600360009054906101000a900473ffffffffffffffffffffffffffffffffffffffff1673ffffffffffffffffffffffffffffffffffffffff163373ffffffffffffffffffffffffffffffffffffffff16141515610c1457600080fd5b600360149054906101000a900460ff16151515610c3057600080fd5b610c458260005461181c90919063ffffffff16565b600081905550610c9d82600160008673ffffffffffffffffffffffffffffffffffffffff1673ffffffffffffffffffffffffffffffffffffffff1681526020019081526020016000205461181c90919063ffffffff16565b600160008573ffffffffffffffffffffffffffffffffffffffff1673ffffffffffffffffffffffffffffffffffffffff168152602001908152602001600020819055508273ffffffffffffffffffffffffffffffffffffffff167f0f6798a560793a54c3bcfe86a93cde1e73087d944c0ea20544137d4121396885836040518082815260200191505060405180910390a28273ffffffffffffffffffffffffffffffffffffffff16600073ffffffffffffffffffffffffffffffffffffffff167fddf252ad1be2c89b69c2b068fc378daa952ba7f163c4a11628f55a4df523b3ef846040518082815260200191505060405180910390a36001905092915050565b600080600260003373ffffffffffffffffffffffffffffffffffffffff1673ffffffffffffffffffffffffffffffffffffffff16815260200190815260200160002060008573ffffffffffffffffffffffffffffffffffffffff1673ffffffffffffffffffffffffffffffffffffffff16815260200190815260200160002054905080831115610eaf576000600260003373ffffffffffffffffffffffffffffffffffffffff1673ffffffffffffffffffffffffffffffffffffffff16815260200190815260200160002060008673ffffffffffffffffffffffffffffffffffffffff1673ffffffffffffffffffffffffffffffffffffffff16815260200190815260200160002081905550610f43565b610ec2838261180390919063ffffffff16565b600260003373ffffffffffffffffffffffffffffffffffffffff1673ffffffffffffffffffffffffffffffffffffffff16815260200190815260200160002060008673ffffffffffffffffffffffffffffffffffffffff1673ffffffffffffffffffffffffffffffffffffffff168152602001908152602001600020819055505b8373ffffffffffffffffffffffffffffffffffffffff163373ffffffffffffffffffffffffffffffffffffffff167f8c5be1e5ebec7d5bd14f71427d1e84f3dd0314c0f7b2291e5b200ac8c7c3b925600260003373ffffffffffffffffffffffffffffffffffffffff1673ffffffffffffffffffffffffffffffffffffffff16815260200190815260200160002060008873ffffffffffffffffffffffffffffffffffffffff1673ffffffffffffffffffffffffffffffffffffffff168152602001908152602001600020546040518082815260200191505060405180910390a3600191505092915050565b6000600160008373ffffffffffffffffffffffffffffffffffffffff1673ffffffffffffffffffffffffffffffffffffffff168152602001908152602001600020549050919050565b6000600360009054906101000a900473ffffffffffffffffffffffffffffffffffffffff1673ffffffffffffffffffffffffffffffffffffffff163373ffffffffffffffffffffffffffffffffffffffff161415156110d657600080fd5b600360149054906101000a900460ff161515156110f257600080fd5b6001600360146101000a81548160ff0219169083151502179055507fae5184fba832cb2b1f702aca6117b8d265eaf03ad33eb133f19dde0f5920fa0860405160405180910390a16001905090565b600360009054906101000a900473ffffffffffffffffffffffffffffffffffffffff1681565b60058054600181600116156101000203166002900480601f0160208091040260200160405190810160405280929190818152602001828054600181600116156101000203166002900480156111fc5780601f106111d1576101008083540402835291602001916111fc565b820191906000526020600020905b8154815290600101906020018083116111df57829003601f168201915b505050505081565b60008073ffffffffffffffffffffffffffffffffffffffff168373ffffffffffffffffffffffffffffffffffffffff161415151561124157600080fd5b600160003373ffffffffffffffffffffffffffffffffffffffff1673ffffffffffffffffffffffffffffffffffffffff16815260200190815260200160002054821115151561128f57600080fd5b6112e182600160003373ffffffffffffffffffffffffffffffffffffffff1673ffffffffffffffffffffffffffffffffffffffff1681526020019081526020016000205461180390919063ffffffff16565b600160003373ffffffffffffffffffffffffffffffffffffffff1673ffffffffffffffffffffffffffffffffffffffff1681526020019081526020016000208190555061137682600160008673ffffffffffffffffffffffffffffffffffffffff1673ffffffffffffffffffffffffffffffffffffffff1681526020019081526020016000205461181c90919063ffffffff16565b600160008573ffffffffffffffffffffffffffffffffffffffff1673ffffffffffffffffffffffffffffffffffffffff168152602001908152602001600020819055508273ffffffffffffffffffffffffffffffffffffffff163373ffffffffffffffffffffffffffffffffffffffff167fddf252ad1be2c89b69c2b068fc378daa952ba7f163c4a11628f55a4df523b3ef846040518082815260200191505060405180910390a36001905092915050565b60006114b982600260003373ffffffffffffffffffffffffffffffffffffffff1673ffffffffffffffffffffffffffffffffffffffff16815260200190815260200160002060008673ffffffffffffffffffffffffffffffffffffffff1673ffffffffffffffffffffffffffffffffffffffff1681526020019081526020016000205461181c90919063ffffffff16565b600260003373ffffffffffffffffffffffffffffffffffffffff1673ffffffffffffffffffffffffffffffffffffffff16815260200190815260200160002060008573ffffffffffffffffffffffffffffffffffffffff1673ffffffffffffffffffffffffffffffffffffffff168152602001908152602001600020819055508273ffffffffffffffffffffffffffffffffffffffff163373ffffffffffffffffffffffffffffffffffffffff167f8c5be1e5ebec7d5bd14f71427d1e84f3dd0314c0f7b2291e5b200ac8c7c3b925600260003373ffffffffffffffffffffffffffffffffffffffff1673ffffffffffffffffffffffffffffffffffffffff16815260200190815260200160002060008773ffffffffffffffffffffffffffffffffffffffff1673ffffffffffffffffffffffffffffffffffffffff168152602001908152602001600020546040518082815260200191505060405180910390a36001905092915050565b6000600260008473ffffffffffffffffffffffffffffffffffffffff1673ffffffffffffffffffffffffffffffffffffffff16815260200190815260200160002060008373ffffffffffffffffffffffffffffffffffffffff1673ffffffffffffffffffffffffffffffffffffffff16815260200190815260200160002054905092915050565b600360009054906101000a900473ffffffffffffffffffffffffffffffffffffffff1673ffffffffffffffffffffffffffffffffffffffff163373ffffffffffffffffffffffffffffffffffffffff1614151561170757600080fd5b600073ffffffffffffffffffffffffffffffffffffffff168173ffffffffffffffffffffffffffffffffffffffff161415151561174357600080fd5b8073ffffffffffffffffffffffffffffffffffffffff16600360009054906101000a900473ffffffffffffffffffffffffffffffffffffffff1673ffffffffffffffffffffffffffffffffffffffff167f8be0079c531659141344cd1fd0a4f28419497f9722a3daafe3b4186f6b6457e060405160405180910390a380600360006101000a81548173ffffffffffffffffffffffffffffffffffffffff021916908373ffffffffffffffffffffffffffffffffffffffff16021790555050565b600082821115151561181157fe5b818303905092915050565b600080828401905083811015151561183057fe5b80915050929150505600a165627a7a7230582033e93982d9e89060ade41b54d465f8f2f098321241a29067daa0536e629194900029a165627a7a72305820acf4bf4e363fb0c8eb35a48a3a85d7e944759f7fd5c8a66dd47d99acfe2836d0002960606040526000600360146101000a81548160ff0219169083151502179055506040805190810160405280600a81526020017f545249414c20434f494e00000000000000000000000000000000000000000000815250600490805190602001906200006c9291906200011e565b506040805190810160405280600381526020017f545249000000000000000000000000000000000000000000000000000000000081525060059080519060200190620000ba9291906200011e565b506012600660006101000a81548160ff021916908360ff16021790555033600360006101000a81548173ffffffffffffffffffffffffffffffffffffffff021916908373ffffffffffffffffffffffffffffffffffffffff160217905550620001cd565b828054600181600116156101000203166002900490600052602060002090601f016020900481019282601f106200016157805160ff191683800117855562000192565b8280016001018555821562000192579182015b828111156200019157825182559160200191906001019062000174565b5b509050620001a19190620001a5565b5090565b620001ca91905b80821115620001c6576000816000905550600101620001ac565b5090565b90565b61186680620001dd6000396000f3006060604052600436106100e6576000357c0100000000000000000000000000000000000000000000000000000000900463ffffffff16806305d2035b146100eb57806306fdde0314610118578063095ea7b3146101a657806318160ddd1461020057806323b872dd14610229578063313ce567146102a257806340c10f19146102d1578063661884631461032b57806370a08231146103855780637d64bcb4146103d25780638da5cb5b146103ff57806395d89b4114610454578063a9059cbb146104e2578063d73dd6231461053c578063dd62ed3e14610596578063f2fde38b14610602575b600080fd5b34156100f657600080fd5b6100fe61063b565b604051808215151515815260200191505060405180910390f35b341561012357600080fd5b61012b61064e565b6040518080602001828103825283818151815260200191508051906020019080838360005b8381101561016b578082015181840152602081019050610150565b50505050905090810190601f1680156101985780820380516001836020036101000a031916815260200191505b509250505060405180910390f35b34156101b157600080fd5b6101e6600480803573ffffffffffffffffffffffffffffffffffffffff169060200190919080359060200190919050506106ec565b604051808215151515815260200191505060405180910390f35b341561020b57600080fd5b6102136107de565b6040518082815260200191505060405180910390f35b341561023457600080fd5b610288600480803573ffffffffffffffffffffffffffffffffffffffff1690602001909190803573ffffffffffffffffffffffffffffffffffffffff169060200190919080359060200190919050506107e4565b604051808215151515815260200191505060405180910390f35b34156102ad57600080fd5b6102b5610ba3565b604051808260ff1660ff16815260200191505060405180910390f35b34156102dc57600080fd5b610311600480803573ffffffffffffffffffffffffffffffffffffffff16906020019091908035906020019091905050610bb6565b604051808215151515815260200191505060405180910390f35b341561033657600080fd5b61036b600480803573ffffffffffffffffffffffffffffffffffffffff16906020019091908035906020019091905050610d9e565b604051808215151515815260200191505060405180910390f35b341561039057600080fd5b6103bc600480803573ffffffffffffffffffffffffffffffffffffffff1690602001909190505061102f565b6040518082815260200191505060405180910390f35b34156103dd57600080fd5b6103e5611078565b604051808215151515815260200191505060405180910390f35b341561040a57600080fd5b610412611140565b604051808273ffffffffffffffffffffffffffffffffffffffff1673ffffffffffffffffffffffffffffffffffffffff16815260200191505060405180910390f35b341561045f57600080fd5b610467611166565b6040518080602001828103825283818151815260200191508051906020019080838360005b838110156104a757808201518184015260208101905061048c565b50505050905090810190601f1680156104d45780820380516001836020036101000a031916815260200191505b509250505060405180910390f35b34156104ed57600080fd5b610522600480803573ffffffffffffffffffffffffffffffffffffffff16906020019091908035906020019091905050611204565b604051808215151515815260200191505060405180910390f35b341561054757600080fd5b61057c600480803573ffffffffffffffffffffffffffffffffffffffff16906020019091908035906020019091905050611428565b604051808215151515815260200191505060405180910390f35b34156105a157600080fd5b6105ec600480803573ffffffffffffffffffffffffffffffffffffffff1690602001909190803573ffffffffffffffffffffffffffffffffffffffff16906020019091905050611624565b6040518082815260200191505060405180910390f35b341561060d57600080fd5b610639600480803573ffffffffffffffffffffffffffffffffffffffff169060200190919050506116ab565b005b600360149054906101000a900460ff1681565b60048054600181600116156101000203166002900480601f0160208091040260200160405190810160405280929190818152602001828054600181600116156101000203166002900480156106e45780601f106106b9576101008083540402835291602001916106e4565b820191906000526020600020905b8154815290600101906020018083116106c757829003601f168201915b505050505081565b600081600260003373ffffffffffffffffffffffffffffffffffffffff1673ffffffffffffffffffffffffffffffffffffffff16815260200190815260200160002060008573ffffffffffffffffffffffffffffffffffffffff1673ffffffffffffffffffffffffffffffffffffffff168152602001908152602001600020819055508273ffffffffffffffffffffffffffffffffffffffff163373ffffffffffffffffffffffffffffffffffffffff167f8c5be1e5ebec7d5bd14f71427d1e84f3dd0314c0f7b2291e5b200ac8c7c3b925846040518082815260200191505060405180910390a36001905092915050565b60005481565b60008073ffffffffffffffffffffffffffffffffffffffff168373ffffffffffffffffffffffffffffffffffffffff161415151561082157600080fd5b600160008573ffffffffffffffffffffffffffffffffffffffff1673ffffffffffffffffffffffffffffffffffffffff16815260200190815260200160002054821115151561086f57600080fd5b600260008573ffffffffffffffffffffffffffffffffffffffff1673ffffffffffffffffffffffffffffffffffffffff16815260200190815260200160002060003373ffffffffffffffffffffffffffffffffffffffff1673ffffffffffffffffffffffffffffffffffffffff1681526020019081526020016000205482111515156108fa57600080fd5b61094c82600160008773ffffffffffffffffffffffffffffffffffffffff1673ffffffffffffffffffffffffffffffffffffffff1681526020019081526020016000205461180390919063ffffffff16565b600160008673ffffffffffffffffffffffffffffffffffffffff1673ffffffffffffffffffffffffffffffffffffffff168152602001908152602001600020819055506109e182600160008673ffffffffffffffffffffffffffffffffffffffff1673ffffffffffffffffffffffffffffffffffffffff1681526020019081526020016000205461181c90919063ffffffff16565b600160008573ffffffffffffffffffffffffffffffffffffffff1673ffffffffffffffffffffffffffffffffffffffff16815260200190815260200160002081905550610ab382600260008773ffffffffffffffffffffffffffffffffffffffff1673ffffffffffffffffffffffffffffffffffffffff16815260200190815260200160002060003373ffffffffffffffffffffffffffffffffffffffff1673ffffffffffffffffffffffffffffffffffffffff1681526020019081526020016000205461180390919063ffffffff16565b600260008673ffffffffffffffffffffffffffffffffffffffff1673ffffffffffffffffffffffffffffffffffffffff16815260200190815260200160002060003373ffffffffffffffffffffffffffffffffffffffff1673ffffffffffffffffffffffffffffffffffffffff168152602001908152602001600020819055508273ffffffffffffffffffffffffffffffffffffffff168473ffffffffffffffffffffffffffffffffffffffff167fddf252ad1be2c89b69c2b068fc378daa952ba7f163c4a11628f55a4df523b3ef846040518082815260200191505060405180910390a3600190509392505050565b600660009054906101000a900460ff1681565b6000600360009054906101000a900473ffffffffffffffffffffffffffffffffffffffff1673ffffffffffffffffffffffffffffffffffffffff163373ffffffffffffffffffffffffffffffffffffffff16141515610c1457600080fd5b600360149054906101000a900460ff16151515610c3057600080fd5b610c458260005461181c90919063ffffffff16565b600081905550610c9d82600160008673ffffffffffffffffffffffffffffffffffffffff1673ffffffffffffffffffffffffffffffffffffffff1681526020019081526020016000205461181c90919063ffffffff16565b600160008573ffffffffffffffffffffffffffffffffffffffff1673ffffffffffffffffffffffffffffffffffffffff168152602001908152602001600020819055508273ffffffffffffffffffffffffffffffffffffffff167f0f6798a560793a54c3bcfe86a93cde1e73087d944c0ea20544137d4121396885836040518082815260200191505060405180910390a28273ffffffffffffffffffffffffffffffffffffffff16600073ffffffffffffffffffffffffffffffffffffffff167fddf252ad1be2c89b69c2b068fc378daa952ba7f163c4a11628f55a4df523b3ef846040518082815260200191505060405180910390a36001905092915050565b600080600260003373ffffffffffffffffffffffffffffffffffffffff1673ffffffffffffffffffffffffffffffffffffffff16815260200190815260200160002060008573ffffffffffffffffffffffffffffffffffffffff1673ffffffffffffffffffffffffffffffffffffffff16815260200190815260200160002054905080831115610eaf576000600260003373ffffffffffffffffffffffffffffffffffffffff1673ffffffffffffffffffffffffffffffffffffffff16815260200190815260200160002060008673ffffffffffffffffffffffffffffffffffffffff1673ffffffffffffffffffffffffffffffffffffffff16815260200190815260200160002081905550610f43565b610ec2838261180390919063ffffffff16565b600260003373ffffffffffffffffffffffffffffffffffffffff1673ffffffffffffffffffffffffffffffffffffffff16815260200190815260200160002060008673ffffffffffffffffffffffffffffffffffffffff1673ffffffffffffffffffffffffffffffffffffffff168152602001908152602001600020819055505b8373ffffffffffffffffffffffffffffffffffffffff163373ffffffffffffffffffffffffffffffffffffffff167f8c5be1e5ebec7d5bd14f71427d1e84f3dd0314c0f7b2291e5b200ac8c7c3b925600260003373ffffffffffffffffffffffffffffffffffffffff1673ffffffffffffffffffffffffffffffffffffffff16815260200190815260200160002060008873ffffffffffffffffffffffffffffffffffffffff1673ffffffffffffffffffffffffffffffffffffffff168152602001908152602001600020546040518082815260200191505060405180910390a3600191505092915050565b6000600160008373ffffffffffffffffffffffffffffffffffffffff1673ffffffffffffffffffffffffffffffffffffffff168152602001908152602001600020549050919050565b6000600360009054906101000a900473ffffffffffffffffffffffffffffffffffffffff1673ffffffffffffffffffffffffffffffffffffffff163373ffffffffffffffffffffffffffffffffffffffff161415156110d657600080fd5b600360149054906101000a900460ff161515156110f257600080fd5b6001600360146101000a81548160ff0219169083151502179055507fae5184fba832cb2b1f702aca6117b8d265eaf03ad33eb133f19dde0f5920fa0860405160405180910390a16001905090565b600360009054906101000a900473ffffffffffffffffffffffffffffffffffffffff1681565b60058054600181600116156101000203166002900480601f0160208091040260200160405190810160405280929190818152602001828054600181600116156101000203166002900480156111fc5780601f106111d1576101008083540402835291602001916111fc565b820191906000526020600020905b8154815290600101906020018083116111df57829003601f168201915b505050505081565b60008073ffffffffffffffffffffffffffffffffffffffff168373ffffffffffffffffffffffffffffffffffffffff161415151561124157600080fd5b600160003373ffffffffffffffffffffffffffffffffffffffff1673ffffffffffffffffffffffffffffffffffffffff16815260200190815260200160002054821115151561128f57600080fd5b6112e182600160003373ffffffffffffffffffffffffffffffffffffffff1673ffffffffffffffffffffffffffffffffffffffff1681526020019081526020016000205461180390919063ffffffff16565b600160003373ffffffffffffffffffffffffffffffffffffffff1673ffffffffffffffffffffffffffffffffffffffff1681526020019081526020016000208190555061137682600160008673ffffffffffffffffffffffffffffffffffffffff1673ffffffffffffffffffffffffffffffffffffffff1681526020019081526020016000205461181c90919063ffffffff16565b600160008573ffffffffffffffffffffffffffffffffffffffff1673ffffffffffffffffffffffffffffffffffffffff168152602001908152602001600020819055508273ffffffffffffffffffffffffffffffffffffffff163373ffffffffffffffffffffffffffffffffffffffff167fddf252ad1be2c89b69c2b068fc378daa952ba7f163c4a11628f55a4df523b3ef846040518082815260200191505060405180910390a36001905092915050565b60006114b982600260003373ffffffffffffffffffffffffffffffffffffffff1673ffffffffffffffffffffffffffffffffffffffff16815260200190815260200160002060008673ffffffffffffffffffffffffffffffffffffffff1673ffffffffffffffffffffffffffffffffffffffff1681526020019081526020016000205461181c90919063ffffffff16565b600260003373ffffffffffffffffffffffffffffffffffffffff1673ffffffffffffffffffffffffffffffffffffffff16815260200190815260200160002060008573ffffffffffffffffffffffffffffffffffffffff1673ffffffffffffffffffffffffffffffffffffffff168152602001908152602001600020819055508273ffffffffffffffffffffffffffffffffffffffff163373ffffffffffffffffffffffffffffffffffffffff167f8c5be1e5ebec7d5bd14f71427d1e84f3dd0314c0f7b2291e5b200ac8c7c3b925600260003373ffffffffffffffffffffffffffffffffffffffff1673ffffffffffffffffffffffffffffffffffffffff16815260200190815260200160002060008773ffffffffffffffffffffffffffffffffffffffff1673ffffffffffffffffffffffffffffffffffffffff168152602001908152602001600020546040518082815260200191505060405180910390a36001905092915050565b6000600260008473ffffffffffffffffffffffffffffffffffffffff1673ffffffffffffffffffffffffffffffffffffffff16815260200190815260200160002060008373ffffffffffffffffffffffffffffffffffffffff1673ffffffffffffffffffffffffffffffffffffffff16815260200190815260200160002054905092915050565b600360009054906101000a900473ffffffffffffffffffffffffffffffffffffffff1673ffffffffffffffffffffffffffffffffffffffff163373ffffffffffffffffffffffffffffffffffffffff1614151561170757600080fd5b600073ffffffffffffffffffffffffffffffffffffffff168173ffffffffffffffffffffffffffffffffffffffff161415151561174357600080fd5b8073ffffffffffffffffffffffffffffffffffffffff16600360009054906101000a900473ffffffffffffffffffffffffffffffffffffffff1673ffffffffffffffffffffffffffffffffffffffff167f8be0079c531659141344cd1fd0a4f28419497f9722a3daafe3b4186f6b6457e060405160405180910390a380600360006101000a81548173ffffffffffffffffffffffffffffffffffffffff021916908373ffffffffffffffffffffffffffffffffffffffff16021790555050565b600082821115151561181157fe5b818303905092915050565b600080828401905083811015151561183057fe5b80915050929150505600a165627a7a7230582033e93982d9e89060ade41b54d465f8f2f098321241a29067daa0536e629194900029",
  "source": "/*My concerns:\r\n1.) How do you insure that someone gives you the correct id? if you dont want to use ids as a means to find the file hash on the blockchain then how else will you find\r\nthem?\r\n\r\n2.)No real way of insuring that people dont abuse the system to get coins etc.\r\n\r\n\r\n**/\r\npragma solidity ^0.4.13;\r\n\r\n//1 instance of the smart contract per corporation/group that uses it. So the smart contract keeps track of all file distributors for that corporation/group.\r\n\r\nimport './TrialCoin.sol';\r\nimport \"./strings.sol\"; //gives you the ability to do string manipulations\r\ncontract Tree {\r\n\r\n    using strings for *;\r\n    \r\n    struct Distributor {\r\n        address referrer; //person who introduced you to the network\r\n        address distributor_add; //your address\r\n        bool isBanned;\r\n        bool isInit; //are you initialised\r\n        string disId; //your id, calculated from your height in the tree and your branch no starting from the left going right\r\n        bytes32 childrenNo; //how many children you have\r\n    }\r\n\r\n    \r\n    struct File {\r\n        string link; // ipfs hash\r\n        address committer; //file creator address\r\n        Distributor[] distributors; //all the dstrubutors of this file\r\n        bool exists; \r\n        uint256 balance; //This is the credit that's left for this file. A file can only be distributed as long as credit remains for it. Each time it gets distributed, the credit decreases. This credit can be topped up.\r\n    }\r\n    \r\n    // hash-map where bytes32 = id of file\r\n    mapping(bytes32 => File) files;\r\n\r\n    //distrib map to check for bans\r\n    mapping(address => Distributor) distributorMap;\r\n    mapping(bytes32 => bool) outOfFunds;\r\n    mapping(bytes32 => mapping(address => bool)) payed; //wether a distributor has been payed yet for a given file.\r\n    address public owner;\r\n\r\n    //the amount of funds attached to a contract that triggers a lowfund event\r\n    uint256 threshold;\r\n    //the rate of our token/eth\r\n    uint256 coinRate;\r\n\r\n    TrialCoin token;\r\n    \r\n    modifier isUnique(bytes32 id) {\r\n        require(!files[id].exists);\r\n        _;\r\n    }\r\n    \r\n    modifier onlyOwner{\r\n        require(owner == msg.sender);\r\n        _;\r\n    }\r\n    \r\n    event lowFunds(bytes32 id);\r\n\r\n    event noFunds(bytes32 id);\r\n\r\n    event checkForPayment(string disId);\r\n    \r\n    function Tree(uint256 rate, uint256 lowFundCap){\r\n\r\n        owner = msg.sender;\r\n        coinRate = rate;\r\n        threshold = lowFundCap;\r\n        token = createTokenContract();\r\n        \r\n    }\r\n    \r\n    function addFile(bytes32 id, string link, address original_distributor) \r\n    payable \r\n    onlyOwner\r\n    isUnique(id) \r\n    {\r\n        // msg.sender is the committer\r\n        // e.g. BBC\r\n\r\n        //setup file info\r\n        File storage file;\r\n        file.link = link;\r\n        file.committer = msg.sender;\r\n        file.exists = true;\r\n        file.balance = msg.value*coinRate;\r\n\r\n        //setup distributor info\r\n        Distributor storage distributor;\r\n        distributor.referrer = msg.sender;\r\n        distributor.distributor_add = original_distributor;\r\n        distributor.isBanned = false;\r\n        distributor.isInit = true;\r\n        distributor.disId = \"0\";\r\n        distributor.childrenNo = bytes32(0);\r\n\r\n        distributorMap[original_distributor] = distributor;\r\n        //this might be problematic if you want original_distributor to be dynamic\r\n\r\n        //store the data\r\n        file.distributors.push(distributor);\r\n        files[id] = file;\r\n        \r\n    }\r\n\r\n    //The organisation/group that owns the file and hence this contract can increase the balance/credit for a file so it can be distributed more.\r\n    function topUp(bytes32 id) external payable onlyOwner{\r\n        //not sure what to do with the ether that amasses on the contract\r\n        uint256 topUpAmt = msg.value*coinRate;\r\n\r\n        files[id].balance = files[id].balance + topUpAmt;        \r\n    }\r\n\r\n    //This is called by a person who is already a distributor. It allows a current distributor to add a new one.\r\n    //Also implements functionality allowing us to find the id of the inviter given an invitee.\r\n    function addDistributor(bytes32 id, address invitee) external returns(bool){\r\n\r\n        require(distributorMap[invitee].isBanned != false);\r\n\r\n        require(distributorMap[invitee].isInit != true);\r\n\r\n        //if the file has associated funds hen set up a new distributor profile\r\n        if(outOfFunds[id] != true){\r\n\r\n            Distributor storage distributor;\r\n            distributor.referrer = msg.sender;\r\n            distributor.distributor_add = invitee;\r\n            distributor.isBanned = false;\r\n            distributor.isInit = true;\r\n\r\n            distributorMap[msg.sender].childrenNo = bytes32(uint(distributorMap[msg.sender].childrenNo) + 1);\r\n\r\n            distributor.childrenNo = bytes32(0);\r\n\r\n            string memory childrenNoString = bytes32ToString(distributorMap[msg.sender].childrenNo); //create a string that contains callers childrenNo\r\n\r\n            distributor.disId = distributorMap[msg.sender].disId.toSlice().concat(childrenNoString.toSlice()); //the new distributors id is the old distributors id with their childrenNo on the end.\r\n\r\n            distributorMap[invitee] = distributor;\r\n\r\n            files[id].distributors.push(distributor);\r\n\r\n            //files[id].balance = files[id].balance -1;\r\n\r\n            //could update this to draw from a finite pool set by contract creator\r\n            //token.mint(inviter, 1);\r\n\r\n            checkForPayment(distributor.disId);\r\n\r\n            return true;\r\n        }\r\n\r\n        else{\r\n            noFunds(id);\r\n            return false;\r\n        }\r\n\r\n    }\r\n\r\n\r\n    function makePayment(bytes32 fileId, string disId) external returns(bool){\r\n        //needs update for multiple files\r\n        require(payed[fileId][msg.sender] != true);\r\n\r\n        //match the disId of the claimant with the disId of the person a child/they signed up\r\n        //if there is a match then the claimant must have the new distributor as a child and they can be paid\r\n\r\n        //slice memory compare = disId.toSlice().find(distributorMap[msg.sender].disId.toSlice()); \r\n\r\n        bool check = strings.equals(disId.toSlice().find(distributorMap[msg.sender].disId.toSlice()),disId.toSlice());\r\n        if(check){ \r\n\r\n            if(files[fileId].balance >=1){\r\n\r\n                files[fileId].balance = files[fileId].balance -1;\r\n\r\n                token.mint(msg.sender, 1);\r\n\r\n                payed[fileId][msg.sender] = true; //they have now been paid so no more payments\r\n\r\n            }\r\n\r\n            else{\r\n                outOfFunds[fileId] = true;\r\n            }\r\n        }\r\n    }\r\n    \r\n    // Called by the end user\r\n    function getFile(bytes32 id) external returns(string){\r\n        //TODO: Who is the distributor? \r\n        //TODO: Does the file have enough funds to pay the chain of distribution? \r\n        //TODO: If so: Just do it! Move the funds, pay the distributors and deliver the file...\r\n       \r\n        //not sold on this, doing a for loop over distributors is pretty infeasible in the long term\r\n        /*\r\n        pay childDistributor;\r\n        for(childDistributor.parents...) {\r\n            pay parents;\r\n        }\r\n\r\n        **/\r\n        if(files[id].balance < threshold){\r\n            lowFunds(id);\r\n        }\r\n\r\n        return  files[id].link; //return ipfs hash\r\n\r\n    }\r\n\r\n    function createTokenContract() internal returns(TrialCoin){\r\n\r\n        return new TrialCoin();\r\n\r\n    }\r\n    \r\n    function banDistributor(address distrib) external onlyOwner{\r\n\r\n        distributorMap[distrib].isBanned = true;\r\n        \r\n    }\r\n\r\n    function getDisId(address distrib) external returns(string){\r\n        return distributorMap[distrib].disId;\r\n    }\r\n\r\n    function bytes32ToString (bytes32 data) internal returns (string) { //creates string from int\r\n        bytes memory bytesString = new bytes(32);\r\n        for (uint j=0; j<32; j++) {\r\n            byte char = byte(bytes32(uint(data) * 2 ** (8 * j)));\r\n            if (char != 0) {\r\n                bytesString[j] = char;\r\n        }\r\n            }\r\n\r\n        return string(bytesString);\r\n    }\r\n\r\n}",
  "sourcePath": "C:\\Users\\Flinn Dolman\\Documents\\Del-stuff\\contracts\\Tree.sol",
  "compiler": {
    "name": "solc",
    "version": "0.4.18+commit.9cf6e910.Emscripten.clang"
  },
  "schemaVersion": "1.0.1",
  "updatedAt": "2018-01-21T20:08:01.303Z"
}