{
  "contractName": "Tree",
  "abi": [
    {
      "constant": false,
      "inputs": [
        {
          "name": "id",
          "type": "bytes32"
        }
      ],
      "name": "getFile",
      "outputs": [
        {
          "name": "",
          "type": "string"
        }
      ],
      "payable": false,
      "stateMutability": "nonpayable",
      "type": "function"
    },
    {
      "constant": false,
      "inputs": [
        {
          "name": "id",
          "type": "bytes32"
        },
        {
          "name": "distrib",
          "type": "address"
        }
      ],
      "name": "banDistributor",
      "outputs": [
        {
          "name": "",
          "type": "string"
        }
      ],
      "payable": false,
      "stateMutability": "nonpayable",
      "type": "function"
    },
    {
      "constant": true,
      "inputs": [],
      "name": "owner",
      "outputs": [
        {
          "name": "",
          "type": "address"
        }
      ],
      "payable": false,
      "stateMutability": "view",
      "type": "function"
    },
    {
      "constant": false,
      "inputs": [
        {
          "name": "id",
          "type": "bytes32"
        }
      ],
      "name": "topUp",
      "outputs": [
        {
          "name": "",
          "type": "string"
        }
      ],
      "payable": true,
      "stateMutability": "payable",
      "type": "function"
    },
    {
      "constant": false,
      "inputs": [
        {
          "name": "id",
          "type": "bytes32"
        },
        {
          "name": "invitee",
          "type": "address"
        }
      ],
      "name": "addDistributor",
      "outputs": [
        {
          "name": "",
          "type": "bool"
        }
      ],
      "payable": false,
      "stateMutability": "nonpayable",
      "type": "function"
    },
    {
      "constant": false,
      "inputs": [
        {
          "name": "fileId",
          "type": "bytes32"
        },
        {
          "name": "disId",
          "type": "string"
        }
      ],
      "name": "makePayment",
      "outputs": [
        {
          "name": "",
          "type": "bool"
        }
      ],
      "payable": false,
      "stateMutability": "nonpayable",
      "type": "function"
    },
    {
      "constant": false,
      "inputs": [
        {
          "name": "id",
          "type": "bytes32"
        },
        {
          "name": "link",
          "type": "string"
        },
        {
          "name": "original_distributor",
          "type": "address"
        }
      ],
      "name": "addFile",
      "outputs": [
        {
          "name": "",
          "type": "bool"
        }
      ],
      "payable": true,
      "stateMutability": "payable",
      "type": "function"
    },
    {
      "constant": false,
      "inputs": [
        {
          "name": "id",
          "type": "bytes32"
        },
        {
          "name": "distrib",
          "type": "address"
        },
        {
          "name": "original_distributor",
          "type": "address"
        }
      ],
      "name": "getDisId",
      "outputs": [
        {
          "name": "",
          "type": "string"
        }
      ],
      "payable": false,
      "stateMutability": "nonpayable",
      "type": "function"
    },
    {
      "inputs": [
        {
          "name": "rate",
          "type": "uint256"
        },
        {
          "name": "lowFundCap",
          "type": "uint256"
        }
      ],
      "payable": false,
      "stateMutability": "nonpayable",
      "type": "constructor"
    },
    {
      "anonymous": false,
      "inputs": [
        {
          "indexed": false,
          "name": "id",
          "type": "bytes32"
        }
      ],
      "name": "lowFunds",
      "type": "event"
    },
    {
      "anonymous": false,
      "inputs": [
        {
          "indexed": false,
          "name": "id",
          "type": "bytes32"
        }
      ],
      "name": "noFunds",
      "type": "event"
    },
    {
      "anonymous": false,
      "inputs": [
        {
          "indexed": false,
          "name": "disId",
          "type": "string"
        }
      ],
      "name": "checkForPayment",
      "type": "event"
    }
  ],
  "bytecode": "0x606060405234156200001057600080fd5b60405160408062005a8c8339810160405280805190602001909190805190602001909190505033600260006101000a81548173ffffffffffffffffffffffffffffffffffffffff021916908373ffffffffffffffffffffffffffffffffffffffff1602179055508160048190555080600381905550620000a3620000eb640100000000026200246d176401000000009004565b600560006101000a81548173ffffffffffffffffffffffffffffffffffffffff021916908373ffffffffffffffffffffffffffffffffffffffff160217905550505062000124565b6000620000f762000113565b604051809103906000f08015156200010e57600080fd5b905090565b604051611a43806200404983390190565b613f1580620001346000396000f30060606040526004361062000097576000357c0100000000000000000000000000000000000000000000000000000000900463ffffffff168063473aa2a5146200009c57806373c4290014620001425780638da5cb5b146200018b578063cfa54f3914620001e3578063d29a684f1462000201578063d307ca761462000262578063ebc6c3b814620002b8578063f4c1b8261462000338575b600080fd5b3415620000a857600080fd5b620000c4600480803560001916906020019091905050620003fd565b6040518080602001828103825283818151815260200191508051906020019080838360005b8381101562000106578082015181840152602081019050620000e9565b50505050905090810190601f168015620001345780820380516001836020036101000a031916815260200191505b509250505060405180910390f35b34156200014e57600080fd5b6200018960048080356000191690602001909190803573ffffffffffffffffffffffffffffffffffffffff1690602001909190505062000530565b005b34156200019757600080fd5b620001a162000607565b604051808273ffffffffffffffffffffffffffffffffffffffff1673ffffffffffffffffffffffffffffffffffffffff16815260200191505060405180910390f35b620001ff6004808035600019169060200190919050506200062d565b005b34156200020d57600080fd5b6200024860048080356000191690602001909190803573ffffffffffffffffffffffffffffffffffffffff16906020019091905050620006d8565b604051808215151515815260200191505060405180910390f35b34156200026e57600080fd5b6200029e600480803560001916906020019091908035906020019082018035906020019190919290505062000fe0565b604051808215151515815260200191505060405180910390f35b6200033660048080356000191690602001909190803590602001908201803590602001908080601f0160208091040260200160405190810160405280939291908181526020018383808284378201915050505050509190803573ffffffffffffffffffffffffffffffffffffffff1690602001909190505062001455565b005b34156200034457600080fd5b6200037f60048080356000191690602001909190803573ffffffffffffffffffffffffffffffffffffffff1690602001909190505062001af1565b6040518080602001828103825283818151815260200191508051906020019080838360005b83811015620003c1578082015181840152602081019050620003a4565b50505050905090810190601f168015620003ef5780820380516001836020036101000a031916815260200191505b509250505060405180910390f35b6200040762001ffc565b60035460008084600019166000191681526020019081526020016000206004015410156200046f577f7797ed11e4c15b10f8a1d5001f1af39c5cb103e797c60233f519fdd2a453e9648260405180826000191660001916815260200191505060405180910390a15b60008083600019166000191681526020019081526020016000206000018054600181600116156101000203166002900480601f016020809104026020016040519081016040528092919081815260200182805460018160011615610100020316600290048015620005245780601f10620004f85761010080835404028352916020019162000524565b820191906000526020600020905b8154815290600101906020018083116200050657829003601f168201915b50505050509050919050565b3373ffffffffffffffffffffffffffffffffffffffff16600260009054906101000a900473ffffffffffffffffffffffffffffffffffffffff1673ffffffffffffffffffffffffffffffffffffffff161415156200058d57600080fd5b6001600080846000191660001916815260200190815260200160002060050160008373ffffffffffffffffffffffffffffffffffffffff1673ffffffffffffffffffffffffffffffffffffffff16815260200190815260200160002060010160146101000a81548160ff0219169083151502179055505050565b600260009054906101000a900473ffffffffffffffffffffffffffffffffffffffff1681565b60003373ffffffffffffffffffffffffffffffffffffffff16600260009054906101000a900473ffffffffffffffffffffffffffffffffffffffff1673ffffffffffffffffffffffffffffffffffffffff161415156200068c57600080fd5b6004543402905080600080846000191660001916815260200190815260200160002060040154016000808460001916600019168152602001908152602001600020600401819055505050565b600080620006e562001ffc565b60001515600080876000191660001916815260200190815260200160002060050160008673ffffffffffffffffffffffffffffffffffffffff1673ffffffffffffffffffffffffffffffffffffffff16815260200190815260200160002060010160149054906101000a900460ff161515141515156200076457600080fd5b60011515600080876000191660001916815260200190815260200160002060050160008673ffffffffffffffffffffffffffffffffffffffff1673ffffffffffffffffffffffffffffffffffffffff16815260200190815260200160002060010160159054906101000a900460ff16151514151515620007e357600080fd5b6001151560016000876000191660001916815260200190815260200160002060009054906101000a900460ff16151514151562000f9457338260000160006101000a81548173ffffffffffffffffffffffffffffffffffffffff021916908373ffffffffffffffffffffffffffffffffffffffff160217905550838260010160006101000a81548173ffffffffffffffffffffffffffffffffffffffff021916908373ffffffffffffffffffffffffffffffffffffffff16021790555060008260010160146101000a81548160ff02191690831515021790555060018260010160156101000a81548160ff0219169083151502179055506001600080876000191660001916815260200190815260200160002060050160003373ffffffffffffffffffffffffffffffffffffffff1673ffffffffffffffffffffffffffffffffffffffff168152602001908152602001600020600301546001900401600102600080876000191660001916815260200190815260200160002060050160003373ffffffffffffffffffffffffffffffffffffffff1673ffffffffffffffffffffffffffffffffffffffff1681526020019081526020016000206003018160001916905550600060010282600301816000191690555062000a20600080876000191660001916815260200190815260200160002060050160003373ffffffffffffffffffffffffffffffffffffffff1673ffffffffffffffffffffffffffffffffffffffff1681526020019081526020016000206003015462001bfd565b905062000b4462000a318262001d05565b62000b35600080896000191660001916815260200190815260200160002060050160003373ffffffffffffffffffffffffffffffffffffffff1673ffffffffffffffffffffffffffffffffffffffff1681526020019081526020016000206002018054600181600116156101000203166002900480601f01602080910402602001604051908101604052809291908181526020018280546001816001161561010002031660029004801562000b2a5780601f1062000afe5761010080835404028352916020019162000b2a565b820191906000526020600020905b81548152906001019060200180831162000b0c57829003601f168201915b505050505062001d05565b62001d3590919063ffffffff16565b82600201908051906020019062000b5d92919062002010565b5081600080876000191660001916815260200190815260200160002060050160008673ffffffffffffffffffffffffffffffffffffffff1673ffffffffffffffffffffffffffffffffffffffff1681526020019081526020016000206000820160009054906101000a900473ffffffffffffffffffffffffffffffffffffffff168160000160006101000a81548173ffffffffffffffffffffffffffffffffffffffff021916908373ffffffffffffffffffffffffffffffffffffffff1602179055506001820160009054906101000a900473ffffffffffffffffffffffffffffffffffffffff168160010160006101000a81548173ffffffffffffffffffffffffffffffffffffffff021916908373ffffffffffffffffffffffffffffffffffffffff1602179055506001820160149054906101000a900460ff168160010160146101000a81548160ff0219169083151502179055506001820160159054906101000a900460ff168160010160156101000a81548160ff0219169083151502179055506002820181600201908054600181600116156101000203166002900462000d0a92919062002097565b50600382015481600301906000191690559050506000808660001916600019168152602001908152602001600020600201805480600101828162000d4f919062002125565b916000526020600020906004020160008490919091506000820160009054906101000a900473ffffffffffffffffffffffffffffffffffffffff168160000160006101000a81548173ffffffffffffffffffffffffffffffffffffffff021916908373ffffffffffffffffffffffffffffffffffffffff1602179055506001820160009054906101000a900473ffffffffffffffffffffffffffffffffffffffff168160010160006101000a81548173ffffffffffffffffffffffffffffffffffffffff021916908373ffffffffffffffffffffffffffffffffffffffff1602179055506001820160149054906101000a900460ff168160010160146101000a81548160ff0219169083151502179055506001820160159054906101000a900460ff168160010160156101000a81548160ff0219169083151502179055506002820181600201908054600181600116156101000203166002900462000eb692919062002097565b50600382015481600301906000191690555050507f4b718d41810e7bf6233c4593d14036e89516c13627b24bc289f86a3a3af6640a82600201604051808060200182810382528381815460018160011615610100020316600290048152602001915080546001816001161561010002031660029004801562000f7c5780601f1062000f505761010080835404028352916020019162000f7c565b820191906000526020600020905b81548152906001019060200180831162000f5e57829003601f168201915b50509250505060405180910390a16001925062000fd8565b7f84f95dfa53a1b371755bf08eede5030bc0bc84d2fc25d95a1aece83ad1cbaeb28560405180826000191660001916815260200191505060405180910390a1600092505b505092915050565b600080600115156000808760001916600019168152602001908152602001600020600601858560405180838380828437820191505092505050908152602001604051809103902060003373ffffffffffffffffffffffffffffffffffffffff1673ffffffffffffffffffffffffffffffffffffffff16815260200190815260200160002060009054906101000a900460ff161515141515156200108257600080fd5b6200121d620011da6200118e600080896000191660001916815260200190815260200160002060050160003373ffffffffffffffffffffffffffffffffffffffff1673ffffffffffffffffffffffffffffffffffffffff1681526020019081526020016000206002018054600181600116156101000203166002900480601f016020809104026020016040519081016040528092919081815260200182805460018160011615610100020316600290048015620011835780601f10620011575761010080835404028352916020019162001183565b820191906000526020600020905b8154815290600101906020018083116200116557829003601f168201915b505050505062001d05565b620011cb87878080601f01602080910402602001604051908101604052809392919081815260200183838082843782019150505050505062001d05565b62001dbc90919063ffffffff16565b6200121786868080601f01602080910402602001604051908101604052809392919081815260200183838082843782019150505050505062001d05565b62001e12565b905080156200144d5760016000808760001916600019168152602001908152602001600020600401541015156200141857600160008087600019166000191681526020019081526020016000206004015403600080876000191660001916815260200190815260200160002060040181905550600560009054906101000a900473ffffffffffffffffffffffffffffffffffffffff1673ffffffffffffffffffffffffffffffffffffffff166340c10f193360016000604051602001526040518363ffffffff167c0100000000000000000000000000000000000000000000000000000000028152600401808373ffffffffffffffffffffffffffffffffffffffff1673ffffffffffffffffffffffffffffffffffffffff16815260200182815260200192505050602060405180830381600087803b15156200135f57600080fd5b6102c65a03f115156200137157600080fd5b505050604051805190505060016000808760001916600019168152602001908152602001600020600601858560405180838380828437820191505092505050908152602001604051809103902060003373ffffffffffffffffffffffffffffffffffffffff1673ffffffffffffffffffffffffffffffffffffffff16815260200190815260200160002060006101000a81548160ff0219169083151502179055506200144c565b6001806000876000191660001916815260200190815260200160002060006101000a81548160ff0219169083151502179055505b5b509392505050565b6000803373ffffffffffffffffffffffffffffffffffffffff16600260009054906101000a900473ffffffffffffffffffffffffffffffffffffffff1673ffffffffffffffffffffffffffffffffffffffff16141515620014b557600080fd5b84600080826000191660001916815260200190815260200160002060030160009054906101000a900460ff16151515620014ee57600080fd5b848360000190805190602001906200150892919062002010565b50338360010160006101000a81548173ffffffffffffffffffffffffffffffffffffffff021916908373ffffffffffffffffffffffffffffffffffffffff16021790555060018360030160006101000a81548160ff02191690831515021790555060045434028360040181905550338260000160006101000a81548173ffffffffffffffffffffffffffffffffffffffff021916908373ffffffffffffffffffffffffffffffffffffffff160217905550838260010160006101000a81548173ffffffffffffffffffffffffffffffffffffffff021916908373ffffffffffffffffffffffffffffffffffffffff16021790555060008260010160146101000a81548160ff02191690831515021790555060018260010160156101000a81548160ff0219169083151502179055506040805190810160405280600181526020017f30000000000000000000000000000000000000000000000000000000000000008152508260020190805190602001906200168592919062002010565b50600060010282600301816000191690555081600080886000191660001916815260200190815260200160002060050160008673ffffffffffffffffffffffffffffffffffffffff1673ffffffffffffffffffffffffffffffffffffffff1681526020019081526020016000206000820160009054906101000a900473ffffffffffffffffffffffffffffffffffffffff168160000160006101000a81548173ffffffffffffffffffffffffffffffffffffffff021916908373ffffffffffffffffffffffffffffffffffffffff1602179055506001820160009054906101000a900473ffffffffffffffffffffffffffffffffffffffff168160010160006101000a81548173ffffffffffffffffffffffffffffffffffffffff021916908373ffffffffffffffffffffffffffffffffffffffff1602179055506001820160149054906101000a900460ff168160010160146101000a81548160ff0219169083151502179055506001820160159054906101000a900460ff168160010160156101000a81548160ff021916908315150217905550600282018160020190805460018160011615610100020316600290046200184392919062002097565b50600382015481600301906000191690559050508260020180548060010182816200186f919062002125565b916000526020600020906004020160008490919091506000820160009054906101000a900473ffffffffffffffffffffffffffffffffffffffff168160000160006101000a81548173ffffffffffffffffffffffffffffffffffffffff021916908373ffffffffffffffffffffffffffffffffffffffff1602179055506001820160009054906101000a900473ffffffffffffffffffffffffffffffffffffffff168160010160006101000a81548173ffffffffffffffffffffffffffffffffffffffff021916908373ffffffffffffffffffffffffffffffffffffffff1602179055506001820160149054906101000a900460ff168160010160146101000a81548160ff0219169083151502179055506001820160159054906101000a900460ff168160010160156101000a81548160ff02191690831515021790555060028201816002019080546001816001161561010002031660029004620019d692919062002097565b50600382015481600301906000191690555050508260008088600019166000191681526020019081526020016000206000820181600001908054600181600116156101000203166002900462001a2e92919062002097565b506001820160009054906101000a900473ffffffffffffffffffffffffffffffffffffffff168160010160006101000a81548173ffffffffffffffffffffffffffffffffffffffff021916908373ffffffffffffffffffffffffffffffffffffffff160217905550600282018160020190805462001aae9291906200215a565b506003820160009054906101000a900460ff168160030160006101000a81548160ff02191690831515021790555060048201548160040155905050505050505050565b62001afb62001ffc565b600080846000191660001916815260200190815260200160002060050160008373ffffffffffffffffffffffffffffffffffffffff1673ffffffffffffffffffffffffffffffffffffffff1681526020019081526020016000206002018054600181600116156101000203166002900480601f01602080910402602001604051908101604052809291908181526020018280546001816001161561010002031660029004801562001bf05780601f1062001bc45761010080835404028352916020019162001bf0565b820191906000526020600020905b81548152906001019060200180831162001bd257829003601f168201915b5050505050905092915050565b62001c0762001ffc565b62001c1162002319565b600080602060405180591062001c245750595b9080825280601f01601f19166020018201604052509250600091505b602082101562001cfa578160080260020a856001900402600102905060007f010000000000000000000000000000000000000000000000000000000000000002817effffffffffffffffffffffffffffffffffffffffffffffffffffffffffffff191614151562001cec5780838381518110151562001cbb57fe5b9060200101907effffffffffffffffffffffffffffffffffffffffffffffffffffffffffffff1916908160001a9053505b818060010192505062001c40565b829350505050919050565b62001d0f6200232d565b600060208301905060408051908101604052808451815260200182815250915050919050565b62001d3f62001ffc565b62001d4962001ffc565b6000836000015185600001510160405180591062001d645750595b9080825280601f01601f1916602001820160405250915060208201905062001d96818660200151876000015162001e2a565b62001db1856000015182018560200151866000015162001e2a565b819250505092915050565b62001dc66200232d565b600062001de6846000015185602001518560000151866020015162001e77565b905083602001518103846000018181510391508181525050808460200181815250508391505092915050565b60008062001e21848462001f3c565b14905092915050565b60005b60208210151562001e54578251845260208401935060208301925060208203915062001e2d565b6001826020036101000a0390508019835116818551168181178652505050505050565b6000806000806000888711151562001f2a5760208711151562001edd5760018760200360080260020a031980875116888b038a018a96505b81838851161462001ed15760018701965080600188031062001eaf578b8b0196505b50505083945062001f30565b8686209150879350600092505b8689038311151562001f2957868420905080600019168260001916141562001f155783945062001f30565b600184019350828060010193505062001eea565b5b88880194505b50505050949350505050565b60008060008060008060008060008a6000015197508a600001518a60000151101562001f6a57896000015197505b8a60200151965089602001519550600094505b8785101562001fe0578651935085519250828414151562001fc857600185896020030160080260020a0319915081831682851603905060008114151562001fc75780985062001fee565b5b60208701965060208601955060208501945062001f7d565b89600001518b600001510398505b505050505050505092915050565b602060405190810160405280600081525090565b828054600181600116156101000203166002900490600052602060002090601f016020900481019282601f106200205357805160ff191683800117855562002084565b8280016001018555821562002084579182015b828111156200208357825182559160200191906001019062002066565b5b50905062002093919062002347565b5090565b828054600181600116156101000203166002900490600052602060002090601f016020900481019282601f10620020d2578054855562002112565b828001600101855582156200211257600052602060002091601f016020900482015b8281111562002111578254825591600101919060010190620020f4565b5b50905062002121919062002347565b5090565b81548183558181151162002155576004028160040283600052602060002091820191016200215491906200236f565b5b505050565b828054828255906000526020600020906004028101928215620023065760005260206000209160040282015b82811115620023055782826000820160009054906101000a900473ffffffffffffffffffffffffffffffffffffffff168160000160006101000a81548173ffffffffffffffffffffffffffffffffffffffff021916908373ffffffffffffffffffffffffffffffffffffffff1602179055506001820160009054906101000a900473ffffffffffffffffffffffffffffffffffffffff168160010160006101000a81548173ffffffffffffffffffffffffffffffffffffffff021916908373ffffffffffffffffffffffffffffffffffffffff1602179055506001820160149054906101000a900460ff168160010160146101000a81548160ff0219169083151502179055506001820160159054906101000a900460ff168160010160156101000a81548160ff02191690831515021790555060028201816002019080546001816001161561010002031660029004620022e292919062002097565b506003820154816003019060001916905550509160040191906004019062002186565b5b5090506200231591906200236f565b5090565b602060405190810160405280600081525090565b604080519081016040528060008152602001600081525090565b6200236c91905b80821115620023685760008160009055506001016200234e565b5090565b90565b6200241e91905b808211156200241a57600080820160006101000a81549073ffffffffffffffffffffffffffffffffffffffff02191690556001820160006101000a81549073ffffffffffffffffffffffffffffffffffffffff02191690556001820160146101000a81549060ff02191690556001820160156101000a81549060ff021916905560028201600062002408919062002421565b60038201600090555060040162002376565b5090565b90565b50805460018160011615610100020316600290046000825580601f106200244957506200246a565b601f01602090049060005260206000209081019062002469919062002347565b5b50565b60006200247962002495565b604051809103906000f08015156200249057600080fd5b905090565b604051611a4380620024a783390190560060606040526000600360146101000a81548160ff0219169083151502179055506040805190810160405280600a81526020017f545249414c20434f494e00000000000000000000000000000000000000000000815250600490805190602001906200006c9291906200011e565b506040805190810160405280600381526020017f545249000000000000000000000000000000000000000000000000000000000081525060059080519060200190620000ba9291906200011e565b506012600660006101000a81548160ff021916908360ff16021790555033600360006101000a81548173ffffffffffffffffffffffffffffffffffffffff021916908373ffffffffffffffffffffffffffffffffffffffff160217905550620001cd565b828054600181600116156101000203166002900490600052602060002090601f016020900481019282601f106200016157805160ff191683800117855562000192565b8280016001018555821562000192579182015b828111156200019157825182559160200191906001019062000174565b5b509050620001a19190620001a5565b5090565b620001ca91905b80821115620001c6576000816000905550600101620001ac565b5090565b90565b61186680620001dd6000396000f3006060604052600436106100e6576000357c0100000000000000000000000000000000000000000000000000000000900463ffffffff16806305d2035b146100eb57806306fdde0314610118578063095ea7b3146101a657806318160ddd1461020057806323b872dd14610229578063313ce567146102a257806340c10f19146102d1578063661884631461032b57806370a08231146103855780637d64bcb4146103d25780638da5cb5b146103ff57806395d89b4114610454578063a9059cbb146104e2578063d73dd6231461053c578063dd62ed3e14610596578063f2fde38b14610602575b600080fd5b34156100f657600080fd5b6100fe61063b565b604051808215151515815260200191505060405180910390f35b341561012357600080fd5b61012b61064e565b6040518080602001828103825283818151815260200191508051906020019080838360005b8381101561016b578082015181840152602081019050610150565b50505050905090810190601f1680156101985780820380516001836020036101000a031916815260200191505b509250505060405180910390f35b34156101b157600080fd5b6101e6600480803573ffffffffffffffffffffffffffffffffffffffff169060200190919080359060200190919050506106ec565b604051808215151515815260200191505060405180910390f35b341561020b57600080fd5b6102136107de565b6040518082815260200191505060405180910390f35b341561023457600080fd5b610288600480803573ffffffffffffffffffffffffffffffffffffffff1690602001909190803573ffffffffffffffffffffffffffffffffffffffff169060200190919080359060200190919050506107e4565b604051808215151515815260200191505060405180910390f35b34156102ad57600080fd5b6102b5610ba3565b604051808260ff1660ff16815260200191505060405180910390f35b34156102dc57600080fd5b610311600480803573ffffffffffffffffffffffffffffffffffffffff16906020019091908035906020019091905050610bb6565b604051808215151515815260200191505060405180910390f35b341561033657600080fd5b61036b600480803573ffffffffffffffffffffffffffffffffffffffff16906020019091908035906020019091905050610d9e565b604051808215151515815260200191505060405180910390f35b341561039057600080fd5b6103bc600480803573ffffffffffffffffffffffffffffffffffffffff1690602001909190505061102f565b6040518082815260200191505060405180910390f35b34156103dd57600080fd5b6103e5611078565b604051808215151515815260200191505060405180910390f35b341561040a57600080fd5b610412611140565b604051808273ffffffffffffffffffffffffffffffffffffffff1673ffffffffffffffffffffffffffffffffffffffff16815260200191505060405180910390f35b341561045f57600080fd5b610467611166565b6040518080602001828103825283818151815260200191508051906020019080838360005b838110156104a757808201518184015260208101905061048c565b50505050905090810190601f1680156104d45780820380516001836020036101000a031916815260200191505b509250505060405180910390f35b34156104ed57600080fd5b610522600480803573ffffffffffffffffffffffffffffffffffffffff16906020019091908035906020019091905050611204565b604051808215151515815260200191505060405180910390f35b341561054757600080fd5b61057c600480803573ffffffffffffffffffffffffffffffffffffffff16906020019091908035906020019091905050611428565b604051808215151515815260200191505060405180910390f35b34156105a157600080fd5b6105ec600480803573ffffffffffffffffffffffffffffffffffffffff1690602001909190803573ffffffffffffffffffffffffffffffffffffffff16906020019091905050611624565b6040518082815260200191505060405180910390f35b341561060d57600080fd5b610639600480803573ffffffffffffffffffffffffffffffffffffffff169060200190919050506116ab565b005b600360149054906101000a900460ff1681565b60048054600181600116156101000203166002900480601f0160208091040260200160405190810160405280929190818152602001828054600181600116156101000203166002900480156106e45780601f106106b9576101008083540402835291602001916106e4565b820191906000526020600020905b8154815290600101906020018083116106c757829003601f168201915b505050505081565b600081600260003373ffffffffffffffffffffffffffffffffffffffff1673ffffffffffffffffffffffffffffffffffffffff16815260200190815260200160002060008573ffffffffffffffffffffffffffffffffffffffff1673ffffffffffffffffffffffffffffffffffffffff168152602001908152602001600020819055508273ffffffffffffffffffffffffffffffffffffffff163373ffffffffffffffffffffffffffffffffffffffff167f8c5be1e5ebec7d5bd14f71427d1e84f3dd0314c0f7b2291e5b200ac8c7c3b925846040518082815260200191505060405180910390a36001905092915050565b60005481565b60008073ffffffffffffffffffffffffffffffffffffffff168373ffffffffffffffffffffffffffffffffffffffff161415151561082157600080fd5b600160008573ffffffffffffffffffffffffffffffffffffffff1673ffffffffffffffffffffffffffffffffffffffff16815260200190815260200160002054821115151561086f57600080fd5b600260008573ffffffffffffffffffffffffffffffffffffffff1673ffffffffffffffffffffffffffffffffffffffff16815260200190815260200160002060003373ffffffffffffffffffffffffffffffffffffffff1673ffffffffffffffffffffffffffffffffffffffff1681526020019081526020016000205482111515156108fa57600080fd5b61094c82600160008773ffffffffffffffffffffffffffffffffffffffff1673ffffffffffffffffffffffffffffffffffffffff1681526020019081526020016000205461180390919063ffffffff16565b600160008673ffffffffffffffffffffffffffffffffffffffff1673ffffffffffffffffffffffffffffffffffffffff168152602001908152602001600020819055506109e182600160008673ffffffffffffffffffffffffffffffffffffffff1673ffffffffffffffffffffffffffffffffffffffff1681526020019081526020016000205461181c90919063ffffffff16565b600160008573ffffffffffffffffffffffffffffffffffffffff1673ffffffffffffffffffffffffffffffffffffffff16815260200190815260200160002081905550610ab382600260008773ffffffffffffffffffffffffffffffffffffffff1673ffffffffffffffffffffffffffffffffffffffff16815260200190815260200160002060003373ffffffffffffffffffffffffffffffffffffffff1673ffffffffffffffffffffffffffffffffffffffff1681526020019081526020016000205461180390919063ffffffff16565b600260008673ffffffffffffffffffffffffffffffffffffffff1673ffffffffffffffffffffffffffffffffffffffff16815260200190815260200160002060003373ffffffffffffffffffffffffffffffffffffffff1673ffffffffffffffffffffffffffffffffffffffff168152602001908152602001600020819055508273ffffffffffffffffffffffffffffffffffffffff168473ffffffffffffffffffffffffffffffffffffffff167fddf252ad1be2c89b69c2b068fc378daa952ba7f163c4a11628f55a4df523b3ef846040518082815260200191505060405180910390a3600190509392505050565b600660009054906101000a900460ff1681565b6000600360009054906101000a900473ffffffffffffffffffffffffffffffffffffffff1673ffffffffffffffffffffffffffffffffffffffff163373ffffffffffffffffffffffffffffffffffffffff16141515610c1457600080fd5b600360149054906101000a900460ff16151515610c3057600080fd5b610c458260005461181c90919063ffffffff16565b600081905550610c9d82600160008673ffffffffffffffffffffffffffffffffffffffff1673ffffffffffffffffffffffffffffffffffffffff1681526020019081526020016000205461181c90919063ffffffff16565b600160008573ffffffffffffffffffffffffffffffffffffffff1673ffffffffffffffffffffffffffffffffffffffff168152602001908152602001600020819055508273ffffffffffffffffffffffffffffffffffffffff167f0f6798a560793a54c3bcfe86a93cde1e73087d944c0ea20544137d4121396885836040518082815260200191505060405180910390a28273ffffffffffffffffffffffffffffffffffffffff16600073ffffffffffffffffffffffffffffffffffffffff167fddf252ad1be2c89b69c2b068fc378daa952ba7f163c4a11628f55a4df523b3ef846040518082815260200191505060405180910390a36001905092915050565b600080600260003373ffffffffffffffffffffffffffffffffffffffff1673ffffffffffffffffffffffffffffffffffffffff16815260200190815260200160002060008573ffffffffffffffffffffffffffffffffffffffff1673ffffffffffffffffffffffffffffffffffffffff16815260200190815260200160002054905080831115610eaf576000600260003373ffffffffffffffffffffffffffffffffffffffff1673ffffffffffffffffffffffffffffffffffffffff16815260200190815260200160002060008673ffffffffffffffffffffffffffffffffffffffff1673ffffffffffffffffffffffffffffffffffffffff16815260200190815260200160002081905550610f43565b610ec2838261180390919063ffffffff16565b600260003373ffffffffffffffffffffffffffffffffffffffff1673ffffffffffffffffffffffffffffffffffffffff16815260200190815260200160002060008673ffffffffffffffffffffffffffffffffffffffff1673ffffffffffffffffffffffffffffffffffffffff168152602001908152602001600020819055505b8373ffffffffffffffffffffffffffffffffffffffff163373ffffffffffffffffffffffffffffffffffffffff167f8c5be1e5ebec7d5bd14f71427d1e84f3dd0314c0f7b2291e5b200ac8c7c3b925600260003373ffffffffffffffffffffffffffffffffffffffff1673ffffffffffffffffffffffffffffffffffffffff16815260200190815260200160002060008873ffffffffffffffffffffffffffffffffffffffff1673ffffffffffffffffffffffffffffffffffffffff168152602001908152602001600020546040518082815260200191505060405180910390a3600191505092915050565b6000600160008373ffffffffffffffffffffffffffffffffffffffff1673ffffffffffffffffffffffffffffffffffffffff168152602001908152602001600020549050919050565b6000600360009054906101000a900473ffffffffffffffffffffffffffffffffffffffff1673ffffffffffffffffffffffffffffffffffffffff163373ffffffffffffffffffffffffffffffffffffffff161415156110d657600080fd5b600360149054906101000a900460ff161515156110f257600080fd5b6001600360146101000a81548160ff0219169083151502179055507fae5184fba832cb2b1f702aca6117b8d265eaf03ad33eb133f19dde0f5920fa0860405160405180910390a16001905090565b600360009054906101000a900473ffffffffffffffffffffffffffffffffffffffff1681565b60058054600181600116156101000203166002900480601f0160208091040260200160405190810160405280929190818152602001828054600181600116156101000203166002900480156111fc5780601f106111d1576101008083540402835291602001916111fc565b820191906000526020600020905b8154815290600101906020018083116111df57829003601f168201915b505050505081565b60008073ffffffffffffffffffffffffffffffffffffffff168373ffffffffffffffffffffffffffffffffffffffff161415151561124157600080fd5b600160003373ffffffffffffffffffffffffffffffffffffffff1673ffffffffffffffffffffffffffffffffffffffff16815260200190815260200160002054821115151561128f57600080fd5b6112e182600160003373ffffffffffffffffffffffffffffffffffffffff1673ffffffffffffffffffffffffffffffffffffffff1681526020019081526020016000205461180390919063ffffffff16565b600160003373ffffffffffffffffffffffffffffffffffffffff1673ffffffffffffffffffffffffffffffffffffffff1681526020019081526020016000208190555061137682600160008673ffffffffffffffffffffffffffffffffffffffff1673ffffffffffffffffffffffffffffffffffffffff1681526020019081526020016000205461181c90919063ffffffff16565b600160008573ffffffffffffffffffffffffffffffffffffffff1673ffffffffffffffffffffffffffffffffffffffff168152602001908152602001600020819055508273ffffffffffffffffffffffffffffffffffffffff163373ffffffffffffffffffffffffffffffffffffffff167fddf252ad1be2c89b69c2b068fc378daa952ba7f163c4a11628f55a4df523b3ef846040518082815260200191505060405180910390a36001905092915050565b60006114b982600260003373ffffffffffffffffffffffffffffffffffffffff1673ffffffffffffffffffffffffffffffffffffffff16815260200190815260200160002060008673ffffffffffffffffffffffffffffffffffffffff1673ffffffffffffffffffffffffffffffffffffffff1681526020019081526020016000205461181c90919063ffffffff16565b600260003373ffffffffffffffffffffffffffffffffffffffff1673ffffffffffffffffffffffffffffffffffffffff16815260200190815260200160002060008573ffffffffffffffffffffffffffffffffffffffff1673ffffffffffffffffffffffffffffffffffffffff168152602001908152602001600020819055508273ffffffffffffffffffffffffffffffffffffffff163373ffffffffffffffffffffffffffffffffffffffff167f8c5be1e5ebec7d5bd14f71427d1e84f3dd0314c0f7b2291e5b200ac8c7c3b925600260003373ffffffffffffffffffffffffffffffffffffffff1673ffffffffffffffffffffffffffffffffffffffff16815260200190815260200160002060008773ffffffffffffffffffffffffffffffffffffffff1673ffffffffffffffffffffffffffffffffffffffff168152602001908152602001600020546040518082815260200191505060405180910390a36001905092915050565b6000600260008473ffffffffffffffffffffffffffffffffffffffff1673ffffffffffffffffffffffffffffffffffffffff16815260200190815260200160002060008373ffffffffffffffffffffffffffffffffffffffff1673ffffffffffffffffffffffffffffffffffffffff16815260200190815260200160002054905092915050565b600360009054906101000a900473ffffffffffffffffffffffffffffffffffffffff1673ffffffffffffffffffffffffffffffffffffffff163373ffffffffffffffffffffffffffffffffffffffff1614151561170757600080fd5b600073ffffffffffffffffffffffffffffffffffffffff168173ffffffffffffffffffffffffffffffffffffffff161415151561174357600080fd5b8073ffffffffffffffffffffffffffffffffffffffff16600360009054906101000a900473ffffffffffffffffffffffffffffffffffffffff1673ffffffffffffffffffffffffffffffffffffffff167f8be0079c531659141344cd1fd0a4f28419497f9722a3daafe3b4186f6b6457e060405160405180910390a380600360006101000a81548173ffffffffffffffffffffffffffffffffffffffff021916908373ffffffffffffffffffffffffffffffffffffffff16021790555050565b600082821115151561181157fe5b818303905092915050565b600080828401905083811015151561183057fe5b80915050929150505600a165627a7a7230582033e93982d9e89060ade41b54d465f8f2f098321241a29067daa0536e629194900029a165627a7a723058206e6e594915dadf5aa0429ded1d71d72222befb830a67878dbfd56ac55c5f9a5b002960606040526000600360146101000a81548160ff0219169083151502179055506040805190810160405280600a81526020017f545249414c20434f494e00000000000000000000000000000000000000000000815250600490805190602001906200006c9291906200011e565b506040805190810160405280600381526020017f545249000000000000000000000000000000000000000000000000000000000081525060059080519060200190620000ba9291906200011e565b506012600660006101000a81548160ff021916908360ff16021790555033600360006101000a81548173ffffffffffffffffffffffffffffffffffffffff021916908373ffffffffffffffffffffffffffffffffffffffff160217905550620001cd565b828054600181600116156101000203166002900490600052602060002090601f016020900481019282601f106200016157805160ff191683800117855562000192565b8280016001018555821562000192579182015b828111156200019157825182559160200191906001019062000174565b5b509050620001a19190620001a5565b5090565b620001ca91905b80821115620001c6576000816000905550600101620001ac565b5090565b90565b61186680620001dd6000396000f3006060604052600436106100e6576000357c0100000000000000000000000000000000000000000000000000000000900463ffffffff16806305d2035b146100eb57806306fdde0314610118578063095ea7b3146101a657806318160ddd1461020057806323b872dd14610229578063313ce567146102a257806340c10f19146102d1578063661884631461032b57806370a08231146103855780637d64bcb4146103d25780638da5cb5b146103ff57806395d89b4114610454578063a9059cbb146104e2578063d73dd6231461053c578063dd62ed3e14610596578063f2fde38b14610602575b600080fd5b34156100f657600080fd5b6100fe61063b565b604051808215151515815260200191505060405180910390f35b341561012357600080fd5b61012b61064e565b6040518080602001828103825283818151815260200191508051906020019080838360005b8381101561016b578082015181840152602081019050610150565b50505050905090810190601f1680156101985780820380516001836020036101000a031916815260200191505b509250505060405180910390f35b34156101b157600080fd5b6101e6600480803573ffffffffffffffffffffffffffffffffffffffff169060200190919080359060200190919050506106ec565b604051808215151515815260200191505060405180910390f35b341561020b57600080fd5b6102136107de565b6040518082815260200191505060405180910390f35b341561023457600080fd5b610288600480803573ffffffffffffffffffffffffffffffffffffffff1690602001909190803573ffffffffffffffffffffffffffffffffffffffff169060200190919080359060200190919050506107e4565b604051808215151515815260200191505060405180910390f35b34156102ad57600080fd5b6102b5610ba3565b604051808260ff1660ff16815260200191505060405180910390f35b34156102dc57600080fd5b610311600480803573ffffffffffffffffffffffffffffffffffffffff16906020019091908035906020019091905050610bb6565b604051808215151515815260200191505060405180910390f35b341561033657600080fd5b61036b600480803573ffffffffffffffffffffffffffffffffffffffff16906020019091908035906020019091905050610d9e565b604051808215151515815260200191505060405180910390f35b341561039057600080fd5b6103bc600480803573ffffffffffffffffffffffffffffffffffffffff1690602001909190505061102f565b6040518082815260200191505060405180910390f35b34156103dd57600080fd5b6103e5611078565b604051808215151515815260200191505060405180910390f35b341561040a57600080fd5b610412611140565b604051808273ffffffffffffffffffffffffffffffffffffffff1673ffffffffffffffffffffffffffffffffffffffff16815260200191505060405180910390f35b341561045f57600080fd5b610467611166565b6040518080602001828103825283818151815260200191508051906020019080838360005b838110156104a757808201518184015260208101905061048c565b50505050905090810190601f1680156104d45780820380516001836020036101000a031916815260200191505b509250505060405180910390f35b34156104ed57600080fd5b610522600480803573ffffffffffffffffffffffffffffffffffffffff16906020019091908035906020019091905050611204565b604051808215151515815260200191505060405180910390f35b341561054757600080fd5b61057c600480803573ffffffffffffffffffffffffffffffffffffffff16906020019091908035906020019091905050611428565b604051808215151515815260200191505060405180910390f35b34156105a157600080fd5b6105ec600480803573ffffffffffffffffffffffffffffffffffffffff1690602001909190803573ffffffffffffffffffffffffffffffffffffffff16906020019091905050611624565b6040518082815260200191505060405180910390f35b341561060d57600080fd5b610639600480803573ffffffffffffffffffffffffffffffffffffffff169060200190919050506116ab565b005b600360149054906101000a900460ff1681565b60048054600181600116156101000203166002900480601f0160208091040260200160405190810160405280929190818152602001828054600181600116156101000203166002900480156106e45780601f106106b9576101008083540402835291602001916106e4565b820191906000526020600020905b8154815290600101906020018083116106c757829003601f168201915b505050505081565b600081600260003373ffffffffffffffffffffffffffffffffffffffff1673ffffffffffffffffffffffffffffffffffffffff16815260200190815260200160002060008573ffffffffffffffffffffffffffffffffffffffff1673ffffffffffffffffffffffffffffffffffffffff168152602001908152602001600020819055508273ffffffffffffffffffffffffffffffffffffffff163373ffffffffffffffffffffffffffffffffffffffff167f8c5be1e5ebec7d5bd14f71427d1e84f3dd0314c0f7b2291e5b200ac8c7c3b925846040518082815260200191505060405180910390a36001905092915050565b60005481565b60008073ffffffffffffffffffffffffffffffffffffffff168373ffffffffffffffffffffffffffffffffffffffff161415151561082157600080fd5b600160008573ffffffffffffffffffffffffffffffffffffffff1673ffffffffffffffffffffffffffffffffffffffff16815260200190815260200160002054821115151561086f57600080fd5b600260008573ffffffffffffffffffffffffffffffffffffffff1673ffffffffffffffffffffffffffffffffffffffff16815260200190815260200160002060003373ffffffffffffffffffffffffffffffffffffffff1673ffffffffffffffffffffffffffffffffffffffff1681526020019081526020016000205482111515156108fa57600080fd5b61094c82600160008773ffffffffffffffffffffffffffffffffffffffff1673ffffffffffffffffffffffffffffffffffffffff1681526020019081526020016000205461180390919063ffffffff16565b600160008673ffffffffffffffffffffffffffffffffffffffff1673ffffffffffffffffffffffffffffffffffffffff168152602001908152602001600020819055506109e182600160008673ffffffffffffffffffffffffffffffffffffffff1673ffffffffffffffffffffffffffffffffffffffff1681526020019081526020016000205461181c90919063ffffffff16565b600160008573ffffffffffffffffffffffffffffffffffffffff1673ffffffffffffffffffffffffffffffffffffffff16815260200190815260200160002081905550610ab382600260008773ffffffffffffffffffffffffffffffffffffffff1673ffffffffffffffffffffffffffffffffffffffff16815260200190815260200160002060003373ffffffffffffffffffffffffffffffffffffffff1673ffffffffffffffffffffffffffffffffffffffff1681526020019081526020016000205461180390919063ffffffff16565b600260008673ffffffffffffffffffffffffffffffffffffffff1673ffffffffffffffffffffffffffffffffffffffff16815260200190815260200160002060003373ffffffffffffffffffffffffffffffffffffffff1673ffffffffffffffffffffffffffffffffffffffff168152602001908152602001600020819055508273ffffffffffffffffffffffffffffffffffffffff168473ffffffffffffffffffffffffffffffffffffffff167fddf252ad1be2c89b69c2b068fc378daa952ba7f163c4a11628f55a4df523b3ef846040518082815260200191505060405180910390a3600190509392505050565b600660009054906101000a900460ff1681565b6000600360009054906101000a900473ffffffffffffffffffffffffffffffffffffffff1673ffffffffffffffffffffffffffffffffffffffff163373ffffffffffffffffffffffffffffffffffffffff16141515610c1457600080fd5b600360149054906101000a900460ff16151515610c3057600080fd5b610c458260005461181c90919063ffffffff16565b600081905550610c9d82600160008673ffffffffffffffffffffffffffffffffffffffff1673ffffffffffffffffffffffffffffffffffffffff1681526020019081526020016000205461181c90919063ffffffff16565b600160008573ffffffffffffffffffffffffffffffffffffffff1673ffffffffffffffffffffffffffffffffffffffff168152602001908152602001600020819055508273ffffffffffffffffffffffffffffffffffffffff167f0f6798a560793a54c3bcfe86a93cde1e73087d944c0ea20544137d4121396885836040518082815260200191505060405180910390a28273ffffffffffffffffffffffffffffffffffffffff16600073ffffffffffffffffffffffffffffffffffffffff167fddf252ad1be2c89b69c2b068fc378daa952ba7f163c4a11628f55a4df523b3ef846040518082815260200191505060405180910390a36001905092915050565b600080600260003373ffffffffffffffffffffffffffffffffffffffff1673ffffffffffffffffffffffffffffffffffffffff16815260200190815260200160002060008573ffffffffffffffffffffffffffffffffffffffff1673ffffffffffffffffffffffffffffffffffffffff16815260200190815260200160002054905080831115610eaf576000600260003373ffffffffffffffffffffffffffffffffffffffff1673ffffffffffffffffffffffffffffffffffffffff16815260200190815260200160002060008673ffffffffffffffffffffffffffffffffffffffff1673ffffffffffffffffffffffffffffffffffffffff16815260200190815260200160002081905550610f43565b610ec2838261180390919063ffffffff16565b600260003373ffffffffffffffffffffffffffffffffffffffff1673ffffffffffffffffffffffffffffffffffffffff16815260200190815260200160002060008673ffffffffffffffffffffffffffffffffffffffff1673ffffffffffffffffffffffffffffffffffffffff168152602001908152602001600020819055505b8373ffffffffffffffffffffffffffffffffffffffff163373ffffffffffffffffffffffffffffffffffffffff167f8c5be1e5ebec7d5bd14f71427d1e84f3dd0314c0f7b2291e5b200ac8c7c3b925600260003373ffffffffffffffffffffffffffffffffffffffff1673ffffffffffffffffffffffffffffffffffffffff16815260200190815260200160002060008873ffffffffffffffffffffffffffffffffffffffff1673ffffffffffffffffffffffffffffffffffffffff168152602001908152602001600020546040518082815260200191505060405180910390a3600191505092915050565b6000600160008373ffffffffffffffffffffffffffffffffffffffff1673ffffffffffffffffffffffffffffffffffffffff168152602001908152602001600020549050919050565b6000600360009054906101000a900473ffffffffffffffffffffffffffffffffffffffff1673ffffffffffffffffffffffffffffffffffffffff163373ffffffffffffffffffffffffffffffffffffffff161415156110d657600080fd5b600360149054906101000a900460ff161515156110f257600080fd5b6001600360146101000a81548160ff0219169083151502179055507fae5184fba832cb2b1f702aca6117b8d265eaf03ad33eb133f19dde0f5920fa0860405160405180910390a16001905090565b600360009054906101000a900473ffffffffffffffffffffffffffffffffffffffff1681565b60058054600181600116156101000203166002900480601f0160208091040260200160405190810160405280929190818152602001828054600181600116156101000203166002900480156111fc5780601f106111d1576101008083540402835291602001916111fc565b820191906000526020600020905b8154815290600101906020018083116111df57829003601f168201915b505050505081565b60008073ffffffffffffffffffffffffffffffffffffffff168373ffffffffffffffffffffffffffffffffffffffff161415151561124157600080fd5b600160003373ffffffffffffffffffffffffffffffffffffffff1673ffffffffffffffffffffffffffffffffffffffff16815260200190815260200160002054821115151561128f57600080fd5b6112e182600160003373ffffffffffffffffffffffffffffffffffffffff1673ffffffffffffffffffffffffffffffffffffffff1681526020019081526020016000205461180390919063ffffffff16565b600160003373ffffffffffffffffffffffffffffffffffffffff1673ffffffffffffffffffffffffffffffffffffffff1681526020019081526020016000208190555061137682600160008673ffffffffffffffffffffffffffffffffffffffff1673ffffffffffffffffffffffffffffffffffffffff1681526020019081526020016000205461181c90919063ffffffff16565b600160008573ffffffffffffffffffffffffffffffffffffffff1673ffffffffffffffffffffffffffffffffffffffff168152602001908152602001600020819055508273ffffffffffffffffffffffffffffffffffffffff163373ffffffffffffffffffffffffffffffffffffffff167fddf252ad1be2c89b69c2b068fc378daa952ba7f163c4a11628f55a4df523b3ef846040518082815260200191505060405180910390a36001905092915050565b60006114b982600260003373ffffffffffffffffffffffffffffffffffffffff1673ffffffffffffffffffffffffffffffffffffffff16815260200190815260200160002060008673ffffffffffffffffffffffffffffffffffffffff1673ffffffffffffffffffffffffffffffffffffffff1681526020019081526020016000205461181c90919063ffffffff16565b600260003373ffffffffffffffffffffffffffffffffffffffff1673ffffffffffffffffffffffffffffffffffffffff16815260200190815260200160002060008573ffffffffffffffffffffffffffffffffffffffff1673ffffffffffffffffffffffffffffffffffffffff168152602001908152602001600020819055508273ffffffffffffffffffffffffffffffffffffffff163373ffffffffffffffffffffffffffffffffffffffff167f8c5be1e5ebec7d5bd14f71427d1e84f3dd0314c0f7b2291e5b200ac8c7c3b925600260003373ffffffffffffffffffffffffffffffffffffffff1673ffffffffffffffffffffffffffffffffffffffff16815260200190815260200160002060008773ffffffffffffffffffffffffffffffffffffffff1673ffffffffffffffffffffffffffffffffffffffff168152602001908152602001600020546040518082815260200191505060405180910390a36001905092915050565b6000600260008473ffffffffffffffffffffffffffffffffffffffff1673ffffffffffffffffffffffffffffffffffffffff16815260200190815260200160002060008373ffffffffffffffffffffffffffffffffffffffff1673ffffffffffffffffffffffffffffffffffffffff16815260200190815260200160002054905092915050565b600360009054906101000a900473ffffffffffffffffffffffffffffffffffffffff1673ffffffffffffffffffffffffffffffffffffffff163373ffffffffffffffffffffffffffffffffffffffff1614151561170757600080fd5b600073ffffffffffffffffffffffffffffffffffffffff168173ffffffffffffffffffffffffffffffffffffffff161415151561174357600080fd5b8073ffffffffffffffffffffffffffffffffffffffff16600360009054906101000a900473ffffffffffffffffffffffffffffffffffffffff1673ffffffffffffffffffffffffffffffffffffffff167f8be0079c531659141344cd1fd0a4f28419497f9722a3daafe3b4186f6b6457e060405160405180910390a380600360006101000a81548173ffffffffffffffffffffffffffffffffffffffff021916908373ffffffffffffffffffffffffffffffffffffffff16021790555050565b600082821115151561181157fe5b818303905092915050565b600080828401905083811015151561183057fe5b80915050929150505600a165627a7a7230582033e93982d9e89060ade41b54d465f8f2f098321241a29067daa0536e629194900029",
  "source": "/*My concerns:\r\n1.) How do you insure that someone gives you the correct id? if you dont want to use ids as a means to find the file hash on the blockchain then how else will you find\r\nthem?\r\n\r\n2.)No real way of insuring that people dont abuse the system to get coins etc.\r\n\r\n\r\n**/\r\npragma solidity ^0.4.13;\r\n\r\n//1 instance of the smart contract per corporation/group that uses it. So the smart contract keeps track of all file distributors for that corporation/group.\r\n\r\nimport './TrialCoin.sol';\r\nimport \"./strings.sol\"; //gives you the ability to do string manipulations\r\ncontract Tree {\r\n\r\n    using strings for *;\r\n    \r\n    struct Distributor {\r\n        address referrer; //person who introduced you to the network\r\n        address distributor_add; //your address\r\n        bool isBanned;\r\n        bool isInit; //are you initialised\r\n        string disId; //your id, calculated from your height in the tree and your branch no starting from the left going right\r\n        bytes32 childrenNo; //how many children you have\r\n    }\r\n\r\n    \r\n    struct File {\r\n        string link; // ipfs hash\r\n        address committer; //file creator address\r\n        Distributor[] distributors; //all the dstrubutors of this file\r\n        bool exists; \r\n        uint256 balance; //This is the credit that's left for this file. A file can only be distributed as long as credit remains for it. Each time it gets distributed, the credit decreases. This credit can be topped up.\r\n        //distrib map to check for bans\r\n        mapping(address => Distributor) distributorMap;\r\n\r\n        mapping(string => mapping(address => bool)) payed;\r\n    }\r\n    \r\n    // hash-map where bytes32 = id of file\r\n    mapping(bytes32 => File) files;\r\n\r\n    //distrib map to check for bans\r\n    //mapping(address => Distributor) distributorMap;\r\n    mapping(bytes32 => bool) outOfFunds;\r\n    //mapping(bytes32 => mapping(address => bool)) payed; //wether a distributor has been payed yet for a given file.\r\n    address public owner;\r\n\r\n    //the amount of funds attached to a contract that triggers a lowfund event\r\n    uint256 threshold;\r\n    //the rate of our token/eth\r\n    uint256 coinRate;\r\n\r\n    TrialCoin token;\r\n    \r\n    modifier isUnique(bytes32 id) {\r\n        require(!files[id].exists);\r\n        _;\r\n    }\r\n    \r\n    modifier onlyOwner{\r\n        require(owner == msg.sender);\r\n        _;\r\n    }\r\n    \r\n    event lowFunds(bytes32 id);\r\n\r\n    event noFunds(bytes32 id);\r\n\r\n    event checkForPayment(string disId);\r\n    \r\n    function Tree(uint256 rate, uint256 lowFundCap){\r\n\r\n        owner = msg.sender;\r\n        coinRate = rate;\r\n        threshold = lowFundCap;\r\n        token = createTokenContract();\r\n        \r\n    }\r\n    \r\n    function addFile(bytes32 id, string link, address original_distributor) \r\n    payable \r\n    onlyOwner\r\n    isUnique(id) \r\n    {\r\n        // msg.sender is the committer\r\n        // e.g. BBC\r\n\r\n        //setup file info\r\n        File storage file;\r\n        file.link = link;\r\n        file.committer = msg.sender;\r\n        file.exists = true;\r\n        file.balance = msg.value*coinRate;\r\n\r\n        //setup distributor info\r\n        Distributor storage distributor;\r\n        distributor.referrer = msg.sender;\r\n        distributor.distributor_add = original_distributor;\r\n        distributor.isBanned = false;\r\n        distributor.isInit = true;\r\n        distributor.disId = \"0\";\r\n        distributor.childrenNo = bytes32(0);\r\n\r\n        files[id].distributorMap[original_distributor] = distributor;\r\n        //this might be problematic if you want original_distributor to be dynamic\r\n\r\n        //store the data\r\n        file.distributors.push(distributor);\r\n        files[id] = file;\r\n        \r\n    }\r\n\r\n    //The organisation/group that owns the file and hence this contract can increase the balance/credit for a file so it can be distributed more.\r\n    function topUp(bytes32 id) external payable onlyOwner{\r\n        //not sure what to do with the ether that amasses on the contract\r\n        uint256 topUpAmt = msg.value*coinRate;\r\n\r\n        files[id].balance = files[id].balance + topUpAmt;        \r\n    }\r\n\r\n    //This is called by a person who is already a distributor. It allows a current distributor to add a new one.\r\n    //Also implements functionality allowing us to find the id of the inviter given an invitee.\r\n    function addDistributor(bytes32 id, address invitee) external returns(bool){\r\n\r\n        require(files[id].distributorMap[invitee].isBanned != false);\r\n\r\n        require(files[id].distributorMap[invitee].isInit != true);\r\n\r\n        //if the file has associated funds hen set up a new distributor profile\r\n        if(outOfFunds[id] != true){\r\n\r\n            Distributor storage distributor;\r\n            distributor.referrer = msg.sender;\r\n            distributor.distributor_add = invitee;\r\n            distributor.isBanned = false;\r\n            distributor.isInit = true;\r\n\r\n            files[id].distributorMap[msg.sender].childrenNo = bytes32(uint(files[id].distributorMap[msg.sender].childrenNo) + 1);\r\n\r\n            distributor.childrenNo = bytes32(0);\r\n\r\n            string memory childrenNoString = bytes32ToString(files[id].distributorMap[msg.sender].childrenNo); //create a string that contains callers childrenNo\r\n\r\n            distributor.disId = files[id].distributorMap[msg.sender].disId.toSlice().concat(childrenNoString.toSlice()); //the new distributors id is the old distributors id with their childrenNo on the end.\r\n\r\n            files[id].distributorMap[invitee] = distributor;\r\n\r\n            files[id].distributors.push(distributor);\r\n\r\n            //files[id].balance = files[id].balance -1;\r\n\r\n            //could update this to draw from a finite pool set by contract creator\r\n            //token.mint(inviter, 1);\r\n\r\n            checkForPayment(distributor.disId);\r\n\r\n            return true;\r\n        }\r\n\r\n        else{\r\n            noFunds(id);\r\n            return false;\r\n        }\r\n\r\n    }\r\n\r\n\r\n    function makePayment(bytes32 fileId, string disId) external returns(bool){\r\n        //needs update for multiple files\r\n        require(files[fileId].payed[disId][msg.sender] != true);\r\n\r\n        //match the disId of the claimant with the disId of the person a child/they signed up\r\n        //if there is a match then the claimant must have the new distributor as a child and they can be paid\r\n\r\n        //slice memory compare = disId.toSlice().find(distributorMap[msg.sender].disId.toSlice()); \r\n\r\n        bool check = strings.equals(disId.toSlice().find(files[fileId].distributorMap[msg.sender].disId.toSlice()),disId.toSlice());\r\n        if(check){ \r\n\r\n            if(files[fileId].balance >=1){\r\n\r\n                files[fileId].balance = files[fileId].balance -1;\r\n\r\n                token.mint(msg.sender, 1);\r\n\r\n                files[fileId].payed[disId][msg.sender] = true; //they have now been paid so no more payments\r\n\r\n            }\r\n\r\n            else{\r\n                outOfFunds[fileId] = true;\r\n            }\r\n        }\r\n    }\r\n    \r\n    // Called by the end user\r\n    function getFile(bytes32 id) external returns(string){\r\n        //TODO: Who is the distributor? \r\n        //TODO: Does the file have enough funds to pay the chain of distribution? \r\n        //TODO: If so: Just do it! Move the funds, pay the distributors and deliver the file...\r\n       \r\n        //not sold on this, doing a for loop over distributors is pretty infeasible in the long term\r\n        /*\r\n        pay childDistributor;\r\n        for(childDistributor.parents...) {\r\n            pay parents;\r\n        }\r\n\r\n        **/\r\n        if(files[id].balance < threshold){\r\n            lowFunds(id);\r\n        }\r\n\r\n        return  files[id].link; //return ipfs hash\r\n\r\n    }\r\n\r\n    function createTokenContract() internal returns(TrialCoin){\r\n\r\n        return new TrialCoin();\r\n\r\n    }\r\n    \r\n    function banDistributor(bytes32 id, address distrib) external onlyOwner{\r\n\r\n        files[id].distributorMap[distrib].isBanned = true;\r\n        \r\n    }\r\n\r\n    function getDisId(bytes32 id, address distrib) external returns(string){\r\n        return files[id].distributorMap[distrib].disId;\r\n    }\r\n\r\n    function bytes32ToString (bytes32 data) internal returns (string) { //creates string from int\r\n        bytes memory bytesString = new bytes(32);\r\n        for (uint j=0; j<32; j++) {\r\n            byte char = byte(bytes32(uint(data) * 2 ** (8 * j)));\r\n            if (char != 0) {\r\n                bytesString[j] = char;\r\n        }\r\n            }\r\n\r\n        return string(bytesString);\r\n    }\r\n\r\n}",
  "sourcePath": "C:\\Users\\Flinn Dolman\\Documents\\Del-stuff\\contracts\\Tree.sol",
  "compiler": {
    "name": "solc",
    "version": "0.4.18+commit.9cf6e910.Emscripten.clang"
  },
  "schemaVersion": "1.0.1",
  "updatedAt": "2018-01-23T15:46:57.360Z"
}